{
  "_format": "hh-sol-artifact-1",
  "contractName": "Ladder",
  "sourceName": "contracts/LOR.sol",
  "abi": [
    {
      "inputs": [],
      "stateMutability": "nonpayable",
      "type": "constructor"
    },
    {
      "anonymous": false,
      "inputs": [
        {
          "indexed": true,
          "internalType": "address",
          "name": "owner",
          "type": "address"
        },
        {
          "indexed": true,
          "internalType": "address",
          "name": "spender",
          "type": "address"
        },
        {
          "indexed": false,
          "internalType": "uint256",
          "name": "value",
          "type": "uint256"
        }
      ],
      "name": "Approval",
      "type": "event"
    },
    {
      "anonymous": false,
      "inputs": [
        {
          "indexed": true,
          "internalType": "address",
          "name": "user",
          "type": "address"
        },
        {
          "indexed": true,
          "internalType": "uint256",
          "name": "reward",
          "type": "uint256"
        }
      ],
      "name": "InitialReward",
      "type": "event"
    },
    {
      "anonymous": false,
      "inputs": [
        {
          "indexed": true,
          "internalType": "address",
          "name": "codeUsedBy",
          "type": "address"
        },
        {
          "indexed": true,
          "internalType": "address",
          "name": "codeUsedOf",
          "type": "address"
        },
        {
          "indexed": true,
          "internalType": "uint256",
          "name": "amount",
          "type": "uint256"
        }
      ],
      "name": "ReferalReward",
      "type": "event"
    },
    {
      "anonymous": false,
      "inputs": [
        {
          "indexed": true,
          "internalType": "address",
          "name": "from",
          "type": "address"
        },
        {
          "indexed": true,
          "internalType": "address",
          "name": "to",
          "type": "address"
        },
        {
          "indexed": false,
          "internalType": "uint256",
          "name": "value",
          "type": "uint256"
        }
      ],
      "name": "Transfer",
      "type": "event"
    },
    {
      "inputs": [
        {
          "internalType": "address",
          "name": "owner",
          "type": "address"
        },
        {
          "internalType": "address",
          "name": "spender",
          "type": "address"
        }
      ],
      "name": "allowance",
      "outputs": [
        {
          "internalType": "uint256",
          "name": "",
          "type": "uint256"
        }
      ],
      "stateMutability": "view",
      "type": "function"
    },
    {
      "inputs": [
        {
          "internalType": "address",
          "name": "spender",
          "type": "address"
        },
        {
          "internalType": "uint256",
          "name": "amount",
          "type": "uint256"
        }
      ],
      "name": "approve",
      "outputs": [
        {
          "internalType": "bool",
          "name": "",
          "type": "bool"
        }
      ],
      "stateMutability": "nonpayable",
      "type": "function"
    },
    {
      "inputs": [
        {
          "internalType": "address",
          "name": "account",
          "type": "address"
        }
      ],
      "name": "balanceOf",
      "outputs": [
        {
          "internalType": "uint256",
          "name": "",
          "type": "uint256"
        }
      ],
      "stateMutability": "view",
      "type": "function"
    },
    {
      "inputs": [],
      "name": "checkFunds",
      "outputs": [
        {
          "internalType": "uint256",
          "name": "",
          "type": "uint256"
        }
      ],
      "stateMutability": "view",
      "type": "function"
    },
    {
      "inputs": [],
      "name": "decimals",
      "outputs": [
        {
          "internalType": "uint8",
          "name": "",
          "type": "uint8"
        }
      ],
      "stateMutability": "view",
      "type": "function"
    },
    {
      "inputs": [
        {
          "internalType": "address",
          "name": "spender",
          "type": "address"
        },
        {
          "internalType": "uint256",
          "name": "subtractedValue",
          "type": "uint256"
        }
      ],
      "name": "decreaseAllowance",
      "outputs": [
        {
          "internalType": "bool",
          "name": "",
          "type": "bool"
        }
      ],
      "stateMutability": "nonpayable",
      "type": "function"
    },
    {
      "inputs": [
        {
          "internalType": "uint256",
          "name": "_amount",
          "type": "uint256"
        }
      ],
      "name": "deposite",
      "outputs": [],
      "stateMutability": "payable",
      "type": "function"
    },
    {
      "inputs": [
        {
          "internalType": "address",
          "name": "addr",
          "type": "address"
        }
      ],
      "name": "getBalance",
      "outputs": [
        {
          "internalType": "uint256",
          "name": "",
          "type": "uint256"
        }
      ],
      "stateMutability": "view",
      "type": "function"
    },
    {
      "inputs": [
        {
          "internalType": "address",
          "name": "spender",
          "type": "address"
        },
        {
          "internalType": "uint256",
          "name": "addedValue",
          "type": "uint256"
        }
      ],
      "name": "increaseAllowance",
      "outputs": [
        {
          "internalType": "bool",
          "name": "",
          "type": "bool"
        }
      ],
      "stateMutability": "nonpayable",
      "type": "function"
    },
    {
      "inputs": [],
      "name": "name",
      "outputs": [
        {
          "internalType": "string",
          "name": "",
          "type": "string"
        }
      ],
      "stateMutability": "view",
      "type": "function"
    },
    {
      "inputs": [
        {
          "internalType": "string",
          "name": "referalCode",
          "type": "string"
        },
        {
          "internalType": "string",
          "name": "code",
          "type": "string"
        }
      ],
      "name": "register",
      "outputs": [],
      "stateMutability": "nonpayable",
      "type": "function"
    },
    {
      "inputs": [],
      "name": "signupBonus",
      "outputs": [
        {
          "internalType": "uint256",
          "name": "",
          "type": "uint256"
        }
      ],
      "stateMutability": "view",
      "type": "function"
    },
    {
      "inputs": [],
      "name": "symbol",
      "outputs": [
        {
          "internalType": "string",
          "name": "",
          "type": "string"
        }
      ],
      "stateMutability": "view",
      "type": "function"
    },
    {
      "inputs": [],
      "name": "totalSupply",
      "outputs": [
        {
          "internalType": "uint256",
          "name": "",
          "type": "uint256"
        }
      ],
      "stateMutability": "view",
      "type": "function"
    },
    {
      "inputs": [
        {
          "internalType": "address",
          "name": "to",
          "type": "address"
        },
        {
          "internalType": "uint256",
          "name": "amount",
          "type": "uint256"
        }
      ],
      "name": "transfer",
      "outputs": [
        {
          "internalType": "bool",
          "name": "",
          "type": "bool"
        }
      ],
      "stateMutability": "nonpayable",
      "type": "function"
    },
    {
      "inputs": [
        {
          "internalType": "address",
          "name": "from",
          "type": "address"
        },
        {
          "internalType": "address",
          "name": "to",
          "type": "address"
        },
        {
          "internalType": "uint256",
          "name": "amount",
          "type": "uint256"
        }
      ],
      "name": "transferFrom",
      "outputs": [
        {
          "internalType": "bool",
          "name": "",
          "type": "bool"
        }
      ],
      "stateMutability": "nonpayable",
      "type": "function"
    },
    {
      "inputs": [
        {
          "internalType": "uint256",
          "name": "_amount",
          "type": "uint256"
        }
      ],
      "name": "withdraw",
      "outputs": [],
      "stateMutability": "payable",
      "type": "function"
    }
  ],
  "bytecode": "0x608060405260646005553480156200001657600080fd5b506040518060400160405280600d81526020017f556e695175616c206954656368000000000000000000000000000000000000008152506040518060400160405280600281526020017f555100000000000000000000000000000000000000000000000000000000000081525081600390816200009491906200043b565b508060049081620000a691906200043b565b5050506064600f600554620000bc919062000551565b620000c89190620005cb565b600a600060018152602001908152602001600020819055506064600c600554620000f3919062000551565b620000ff9190620005cb565b600a60006002815260200190815260200160002081905550606460096005546200012a919062000551565b620001369190620005cb565b600a600060038152602001908152602001600020819055506064600760055462000161919062000551565b6200016d9190620005cb565b600a6000600481526020019081526020016000208190555060646005805462000197919062000551565b620001a39190620005cb565b600a6000600581526020019081526020016000208190555062000603565b600081519050919050565b7f4e487b7100000000000000000000000000000000000000000000000000000000600052604160045260246000fd5b7f4e487b7100000000000000000000000000000000000000000000000000000000600052602260045260246000fd5b600060028204905060018216806200024357607f821691505b602082108103620002595762000258620001fb565b5b50919050565b60008190508160005260206000209050919050565b60006020601f8301049050919050565b600082821b905092915050565b600060088302620002c37fffffffffffffffffffffffffffffffffffffffffffffffffffffffffffffffff8262000284565b620002cf868362000284565b95508019841693508086168417925050509392505050565b6000819050919050565b6000819050919050565b60006200031c620003166200031084620002e7565b620002f1565b620002e7565b9050919050565b6000819050919050565b6200033883620002fb565b62000350620003478262000323565b84845462000291565b825550505050565b600090565b6200036762000358565b620003748184846200032d565b505050565b5b818110156200039c57620003906000826200035d565b6001810190506200037a565b5050565b601f821115620003eb57620003b5816200025f565b620003c08462000274565b81016020851015620003d0578190505b620003e8620003df8562000274565b83018262000379565b50505b505050565b600082821c905092915050565b60006200041060001984600802620003f0565b1980831691505092915050565b60006200042b8383620003fd565b9150826002028217905092915050565b6200044682620001c1565b67ffffffffffffffff811115620004625762000461620001cc565b5b6200046e82546200022a565b6200047b828285620003a0565b600060209050601f831160018114620004b357600084156200049e578287015190505b620004aa85826200041d565b8655506200051a565b601f198416620004c3866200025f565b60005b82811015620004ed57848901518255600182019150602085019450602081019050620004c6565b868310156200050d578489015162000509601f891682620003fd565b8355505b6001600288020188555050505b505050505050565b7f4e487b7100000000000000000000000000000000000000000000000000000000600052601160045260246000fd5b60006200055e82620002e7565b91506200056b83620002e7565b92508282026200057b81620002e7565b9150828204841483151762000595576200059462000522565b5b5092915050565b7f4e487b7100000000000000000000000000000000000000000000000000000000600052601260045260246000fd5b6000620005d882620002e7565b9150620005e583620002e7565b925082620005f857620005f76200059c565b5b828204905092915050565b61273680620006136000396000f3fe6080604052600436106100fe5760003560e01c8063395093511161009557806395d89b411161006457806395d89b411461032f578063a457c2d71461035a578063a9059cbb14610397578063dd62ed3e146103d4578063f8b2cb4f14610411576100fe565b806339509351146102615780633ffbd47f1461029e57806367cb52d8146102c757806370a08231146102f2576100fe565b806323b872dd116100d157806323b872dd146101c15780632e1a7d4d146101fe5780633104562b1461021a578063313ce56714610236576100fe565b806306fdde031461010357806308d233dc1461012e578063095ea7b31461015957806318160ddd14610196575b600080fd5b34801561010f57600080fd5b5061011861044e565b60405161012591906117a7565b60405180910390f35b34801561013a57600080fd5b506101436104e0565b60405161015091906117e2565b60405180910390f35b34801561016557600080fd5b50610180600480360381019061017b919061189b565b610527565b60405161018d91906118f6565b60405180910390f35b3480156101a257600080fd5b506101ab61054a565b6040516101b891906117e2565b60405180910390f35b3480156101cd57600080fd5b506101e860048036038101906101e39190611911565b610554565b6040516101f591906118f6565b60405180910390f35b61021860048036038101906102139190611964565b610583565b005b610234600480360381019061022f9190611964565b610723565b005b34801561024257600080fd5b5061024b610829565b60405161025891906119ad565b60405180910390f35b34801561026d57600080fd5b506102886004803603810190610283919061189b565b610832565b60405161029591906118f6565b60405180910390f35b3480156102aa57600080fd5b506102c560048036038101906102c09190611afd565b610869565b005b3480156102d357600080fd5b506102dc610ed1565b6040516102e991906117e2565b60405180910390f35b3480156102fe57600080fd5b5061031960048036038101906103149190611b75565b610ed7565b60405161032691906117e2565b60405180910390f35b34801561033b57600080fd5b50610344610f1f565b60405161035191906117a7565b60405180910390f35b34801561036657600080fd5b50610381600480360381019061037c919061189b565b610fb1565b60405161038e91906118f6565b60405180910390f35b3480156103a357600080fd5b506103be60048036038101906103b9919061189b565b611028565b6040516103cb91906118f6565b60405180910390f35b3480156103e057600080fd5b506103fb60048036038101906103f69190611ba2565b61104b565b60405161040891906117e2565b60405180910390f35b34801561041d57600080fd5b5061043860048036038101906104339190611b75565b6110d2565b60405161044591906117e2565b60405180910390f35b60606003805461045d90611c11565b80601f016020809104026020016040519081016040528092919081815260200182805461048990611c11565b80156104d65780601f106104ab576101008083540402835291602001916104d6565b820191906000526020600020905b8154815290600101906020018083116104b957829003601f168201915b5050505050905090565b6000600b60003373ffffffffffffffffffffffffffffffffffffffff1673ffffffffffffffffffffffffffffffffffffffff16815260200190815260200160002054905090565b6000806105326110e4565b905061053f8185856110ec565b600191505092915050565b6000600254905090565b60008061055f6110e4565b905061056c8582856112b5565b610577858585611341565b60019150509392505050565b80600b60003373ffffffffffffffffffffffffffffffffffffffff1673ffffffffffffffffffffffffffffffffffffffff1681526020019081526020016000205411610604576040517f08c379a00000000000000000000000000000000000000000000000000000000081526004016105fb90611c8e565b60405180910390fd5b6000670de0b6b3a76400008261061a9190611cdd565b905060003373ffffffffffffffffffffffffffffffffffffffff168260405161064290611d50565b60006040518083038185875af1925050503d806000811461067f576040519150601f19603f3d011682016040523d82523d6000602084013e610684565b606091505b50509050806106c8576040517f08c379a00000000000000000000000000000000000000000000000000000000081526004016106bf90611db1565b60405180910390fd5b82600b60003373ffffffffffffffffffffffffffffffffffffffff1673ffffffffffffffffffffffffffffffffffffffff16815260200190815260200160002060008282546107179190611dd1565b92505081905550505050565b60003373ffffffffffffffffffffffffffffffffffffffff168260405161074990611d50565b60006040518083038185875af1925050503d8060008114610786576040519150601f19603f3d011682016040523d82523d6000602084013e61078b565b606091505b50509050806107cf576040517f08c379a00000000000000000000000000000000000000000000000000000000081526004016107c690611db1565b60405180910390fd5b81600b60003373ffffffffffffffffffffffffffffffffffffffff1673ffffffffffffffffffffffffffffffffffffffff168152602001908152602001600020600082825461081e9190611e05565b925050819055505050565b60006012905090565b60008061083d6110e4565b905061085e81858561084f858961104b565b6108599190611e05565b6110ec565b600191505092915050565b80805190602001208280519060200120036108b9576040517f08c379a00000000000000000000000000000000000000000000000000000000081526004016108b090611eab565b60405180910390fd5b60001515600760003373ffffffffffffffffffffffffffffffffffffffff1673ffffffffffffffffffffffffffffffffffffffff16815260200190815260200160002060009054906101000a900460ff1615151461094c576040517f08c379a000000000000000000000000000000000000000000000000000000000815260040161094390611f17565b60405180910390fd5b600015156008826040516109609190611f73565b908152602001604051809103902060009054906101000a900460ff161515146109be576040517f08c379a00000000000000000000000000000000000000000000000000000000081526004016109b590611fd6565b60405180910390fd5b6109dd33670de0b6b3a76400006005546109d89190611cdd565b6115b7565b6005543373ffffffffffffffffffffffffffffffffffffffff167fdfa3e9910fe4ea0abbfdf02f2db465eb59e6e87d20b57307631b207e4bba96bd60405160405180910390a36001600760003373ffffffffffffffffffffffffffffffffffffffff1673ffffffffffffffffffffffffffffffffffffffff16815260200190815260200160002060006101000a81548160ff0219169083151502179055506001600882604051610a8d9190611f73565b908152602001604051809103902060006101000a81548160ff02191690831515021790555060405180608001604052803373ffffffffffffffffffffffffffffffffffffffff168152602001600554815260200182815260200183815250600982604051610afb9190611f73565b908152602001604051809103902060008201518160000160006101000a81548173ffffffffffffffffffffffffffffffffffffffff021916908373ffffffffffffffffffffffffffffffffffffffff160217905550602082015181600101556040820151816002019081610b6f91906121a2565b506060820151816003019081610b8591906121a2565b5090505060405180608001604052803373ffffffffffffffffffffffffffffffffffffffff168152602001600554815260200182815260200183815250600660003373ffffffffffffffffffffffffffffffffffffffff1673ffffffffffffffffffffffffffffffffffffffff16815260200190815260200160002060008201518160000160006101000a81548173ffffffffffffffffffffffffffffffffffffffff021916908373ffffffffffffffffffffffffffffffffffffffff160217905550602082015181600101556040820151816002019081610c6791906121a2565b506060820151816003019081610c7d91906121a2565b509050506040518060200160405280600081525080519060200120828051906020012014610ecd576000600190505b60058111610ecb576000600984604051610cc69190611f73565b90815260200160405180910390209050600073ffffffffffffffffffffffffffffffffffffffff168160000160009054906101000a900473ffffffffffffffffffffffffffffffffffffffff1673ffffffffffffffffffffffffffffffffffffffff1614610e2857610d828160000160009054906101000a900473ffffffffffffffffffffffffffffffffffffffff16670de0b6b3a7640000600a600086815260200190815260200160002054610d7d9190611cdd565b6115b7565b670de0b6b3a7640000600a600084815260200190815260200160002054610da99190611cdd565b8160000160009054906101000a900473ffffffffffffffffffffffffffffffffffffffff1673ffffffffffffffffffffffffffffffffffffffff163373ffffffffffffffffffffffffffffffffffffffff167f57cccde60e35b5d41e9ef05831a12eb1079b8add56fb8f9784316da04eeaeb4560405160405180910390a45b806003018054610e3790611c11565b80601f0160208091040260200160405190810160405280929190818152602001828054610e6390611c11565b8015610eb05780601f10610e8557610100808354040283529160200191610eb0565b820191906000526020600020905b815481529060010190602001808311610e9357829003601f168201915b50505050509350508080610ec390612274565b915050610cac565b505b5050565b60055481565b60008060008373ffffffffffffffffffffffffffffffffffffffff1673ffffffffffffffffffffffffffffffffffffffff168152602001908152602001600020549050919050565b606060048054610f2e90611c11565b80601f0160208091040260200160405190810160405280929190818152602001828054610f5a90611c11565b8015610fa75780601f10610f7c57610100808354040283529160200191610fa7565b820191906000526020600020905b815481529060010190602001808311610f8a57829003601f168201915b5050505050905090565b600080610fbc6110e4565b90506000610fca828661104b565b90508381101561100f576040517f08c379a00000000000000000000000000000000000000000000000000000000081526004016110069061232e565b60405180910390fd5b61101c82868684036110ec565b60019250505092915050565b6000806110336110e4565b9050611040818585611341565b600191505092915050565b6000600160008473ffffffffffffffffffffffffffffffffffffffff1673ffffffffffffffffffffffffffffffffffffffff16815260200190815260200160002060008373ffffffffffffffffffffffffffffffffffffffff1673ffffffffffffffffffffffffffffffffffffffff16815260200190815260200160002054905092915050565b60006110dd82610ed7565b9050919050565b600033905090565b600073ffffffffffffffffffffffffffffffffffffffff168373ffffffffffffffffffffffffffffffffffffffff160361115b576040517f08c379a0000000000000000000000000000000000000000000000000000000008152600401611152906123c0565b60405180910390fd5b600073ffffffffffffffffffffffffffffffffffffffff168273ffffffffffffffffffffffffffffffffffffffff16036111ca576040517f08c379a00000000000000000000000000000000000000000000000000000000081526004016111c190612452565b60405180910390fd5b80600160008573ffffffffffffffffffffffffffffffffffffffff1673ffffffffffffffffffffffffffffffffffffffff16815260200190815260200160002060008473ffffffffffffffffffffffffffffffffffffffff1673ffffffffffffffffffffffffffffffffffffffff168152602001908152602001600020819055508173ffffffffffffffffffffffffffffffffffffffff168373ffffffffffffffffffffffffffffffffffffffff167f8c5be1e5ebec7d5bd14f71427d1e84f3dd0314c0f7b2291e5b200ac8c7c3b925836040516112a891906117e2565b60405180910390a3505050565b60006112c1848461104b565b90507fffffffffffffffffffffffffffffffffffffffffffffffffffffffffffffffff811461133b578181101561132d576040517f08c379a0000000000000000000000000000000000000000000000000000000008152600401611324906124be565b60405180910390fd5b61133a84848484036110ec565b5b50505050565b600073ffffffffffffffffffffffffffffffffffffffff168373ffffffffffffffffffffffffffffffffffffffff16036113b0576040517f08c379a00000000000000000000000000000000000000000000000000000000081526004016113a790612550565b60405180910390fd5b600073ffffffffffffffffffffffffffffffffffffffff168273ffffffffffffffffffffffffffffffffffffffff160361141f576040517f08c379a0000000000000000000000000000000000000000000000000000000008152600401611416906125e2565b60405180910390fd5b61142a83838361170d565b60008060008573ffffffffffffffffffffffffffffffffffffffff1673ffffffffffffffffffffffffffffffffffffffff168152602001908152602001600020549050818110156114b0576040517f08c379a00000000000000000000000000000000000000000000000000000000081526004016114a790612674565b60405180910390fd5b8181036000808673ffffffffffffffffffffffffffffffffffffffff1673ffffffffffffffffffffffffffffffffffffffff16815260200190815260200160002081905550816000808573ffffffffffffffffffffffffffffffffffffffff1673ffffffffffffffffffffffffffffffffffffffff168152602001908152602001600020600082825401925050819055508273ffffffffffffffffffffffffffffffffffffffff168473ffffffffffffffffffffffffffffffffffffffff167fddf252ad1be2c89b69c2b068fc378daa952ba7f163c4a11628f55a4df523b3ef8460405161159e91906117e2565b60405180910390a36115b1848484611712565b50505050565b600073ffffffffffffffffffffffffffffffffffffffff168273ffffffffffffffffffffffffffffffffffffffff1603611626576040517f08c379a000000000000000000000000000000000000000000000000000000000815260040161161d906126e0565b60405180910390fd5b6116326000838361170d565b80600260008282546116449190611e05565b92505081905550806000808473ffffffffffffffffffffffffffffffffffffffff1673ffffffffffffffffffffffffffffffffffffffff168152602001908152602001600020600082825401925050819055508173ffffffffffffffffffffffffffffffffffffffff16600073ffffffffffffffffffffffffffffffffffffffff167fddf252ad1be2c89b69c2b068fc378daa952ba7f163c4a11628f55a4df523b3ef836040516116f591906117e2565b60405180910390a361170960008383611712565b5050565b505050565b505050565b600081519050919050565b600082825260208201905092915050565b60005b83811015611751578082015181840152602081019050611736565b60008484015250505050565b6000601f19601f8301169050919050565b600061177982611717565b6117838185611722565b9350611793818560208601611733565b61179c8161175d565b840191505092915050565b600060208201905081810360008301526117c1818461176e565b905092915050565b6000819050919050565b6117dc816117c9565b82525050565b60006020820190506117f760008301846117d3565b92915050565b6000604051905090565b600080fd5b600080fd5b600073ffffffffffffffffffffffffffffffffffffffff82169050919050565b600061183c82611811565b9050919050565b61184c81611831565b811461185757600080fd5b50565b60008135905061186981611843565b92915050565b611878816117c9565b811461188357600080fd5b50565b6000813590506118958161186f565b92915050565b600080604083850312156118b2576118b1611807565b5b60006118c08582860161185a565b92505060206118d185828601611886565b9150509250929050565b60008115159050919050565b6118f0816118db565b82525050565b600060208201905061190b60008301846118e7565b92915050565b60008060006060848603121561192a57611929611807565b5b60006119388682870161185a565b93505060206119498682870161185a565b925050604061195a86828701611886565b9150509250925092565b60006020828403121561197a57611979611807565b5b600061198884828501611886565b91505092915050565b600060ff82169050919050565b6119a781611991565b82525050565b60006020820190506119c2600083018461199e565b92915050565b600080fd5b600080fd5b7f4e487b7100000000000000000000000000000000000000000000000000000000600052604160045260246000fd5b611a0a8261175d565b810181811067ffffffffffffffff82111715611a2957611a286119d2565b5b80604052505050565b6000611a3c6117fd565b9050611a488282611a01565b919050565b600067ffffffffffffffff821115611a6857611a676119d2565b5b611a718261175d565b9050602081019050919050565b82818337600083830152505050565b6000611aa0611a9b84611a4d565b611a32565b905082815260208101848484011115611abc57611abb6119cd565b5b611ac7848285611a7e565b509392505050565b600082601f830112611ae457611ae36119c8565b5b8135611af4848260208601611a8d565b91505092915050565b60008060408385031215611b1457611b13611807565b5b600083013567ffffffffffffffff811115611b3257611b3161180c565b5b611b3e85828601611acf565b925050602083013567ffffffffffffffff811115611b5f57611b5e61180c565b5b611b6b85828601611acf565b9150509250929050565b600060208284031215611b8b57611b8a611807565b5b6000611b998482850161185a565b91505092915050565b60008060408385031215611bb957611bb8611807565b5b6000611bc78582860161185a565b9250506020611bd88582860161185a565b9150509250929050565b7f4e487b7100000000000000000000000000000000000000000000000000000000600052602260045260246000fd5b60006002820490506001821680611c2957607f821691505b602082108103611c3c57611c3b611be2565b5b50919050565b7f4e6f7420656e6f7567682066756e647300000000000000000000000000000000600082015250565b6000611c78601083611722565b9150611c8382611c42565b602082019050919050565b60006020820190508181036000830152611ca781611c6b565b9050919050565b7f4e487b7100000000000000000000000000000000000000000000000000000000600052601160045260246000fd5b6000611ce8826117c9565b9150611cf3836117c9565b9250828202611d01816117c9565b91508282048414831517611d1857611d17611cae565b5b5092915050565b600081905092915050565b50565b6000611d3a600083611d1f565b9150611d4582611d2a565b600082019050919050565b6000611d5b82611d2d565b9150819050919050565b7f46756e64207472616e73666572206572726f7200000000000000000000000000600082015250565b6000611d9b601383611722565b9150611da682611d65565b602082019050919050565b60006020820190508181036000830152611dca81611d8e565b9050919050565b6000611ddc826117c9565b9150611de7836117c9565b9250828203905081811115611dff57611dfe611cae565b5b92915050565b6000611e10826117c9565b9150611e1b836117c9565b9250828201905080821115611e3357611e32611cae565b5b92915050565b7f5265666572616c20636f64652063616e206e6f74206265207468652073616d6560008201527f20617320796f7572730000000000000000000000000000000000000000000000602082015250565b6000611e95602983611722565b9150611ea082611e39565b604082019050919050565b60006020820190508181036000830152611ec481611e88565b9050919050565b7f5573657220657869737400000000000000000000000000000000000000000000600082015250565b6000611f01600a83611722565b9150611f0c82611ecb565b602082019050919050565b60006020820190508181036000830152611f3081611ef4565b9050919050565b600081905092915050565b6000611f4d82611717565b611f578185611f37565b9350611f67818560208601611733565b80840191505092915050565b6000611f7f8284611f42565b915081905092915050565b7f436f646520616c726564792074616b656e000000000000000000000000000000600082015250565b6000611fc0601183611722565b9150611fcb82611f8a565b602082019050919050565b60006020820190508181036000830152611fef81611fb3565b9050919050565b60008190508160005260206000209050919050565b60006020601f8301049050919050565b600082821b905092915050565b6000600883026120587fffffffffffffffffffffffffffffffffffffffffffffffffffffffffffffffff8261201b565b612062868361201b565b95508019841693508086168417925050509392505050565b6000819050919050565b600061209f61209a612095846117c9565b61207a565b6117c9565b9050919050565b6000819050919050565b6120b983612084565b6120cd6120c5826120a6565b848454612028565b825550505050565b600090565b6120e26120d5565b6120ed8184846120b0565b505050565b5b81811015612111576121066000826120da565b6001810190506120f3565b5050565b601f8211156121565761212781611ff6565b6121308461200b565b8101602085101561213f578190505b61215361214b8561200b565b8301826120f2565b50505b505050565b600082821c905092915050565b60006121796000198460080261215b565b1980831691505092915050565b60006121928383612168565b9150826002028217905092915050565b6121ab82611717565b67ffffffffffffffff8111156121c4576121c36119d2565b5b6121ce8254611c11565b6121d9828285612115565b600060209050601f83116001811461220c57600084156121fa578287015190505b6122048582612186565b86555061226c565b601f19841661221a86611ff6565b60005b828110156122425784890151825560018201915060208501945060208101905061221d565b8683101561225f578489015161225b601f891682612168565b8355505b6001600288020188555050505b505050505050565b600061227f826117c9565b91507fffffffffffffffffffffffffffffffffffffffffffffffffffffffffffffffff82036122b1576122b0611cae565b5b600182019050919050565b7f45524332303a2064656372656173656420616c6c6f77616e63652062656c6f7760008201527f207a65726f000000000000000000000000000000000000000000000000000000602082015250565b6000612318602583611722565b9150612323826122bc565b604082019050919050565b600060208201905081810360008301526123478161230b565b9050919050565b7f45524332303a20617070726f76652066726f6d20746865207a65726f2061646460008201527f7265737300000000000000000000000000000000000000000000000000000000602082015250565b60006123aa602483611722565b91506123b58261234e565b604082019050919050565b600060208201905081810360008301526123d98161239d565b9050919050565b7f45524332303a20617070726f766520746f20746865207a65726f20616464726560008201527f7373000000000000000000000000000000000000000000000000000000000000602082015250565b600061243c602283611722565b9150612447826123e0565b604082019050919050565b6000602082019050818103600083015261246b8161242f565b9050919050565b7f45524332303a20696e73756666696369656e7420616c6c6f77616e6365000000600082015250565b60006124a8601d83611722565b91506124b382612472565b602082019050919050565b600060208201905081810360008301526124d78161249b565b9050919050565b7f45524332303a207472616e736665722066726f6d20746865207a65726f20616460008201527f6472657373000000000000000000000000000000000000000000000000000000602082015250565b600061253a602583611722565b9150612545826124de565b604082019050919050565b600060208201905081810360008301526125698161252d565b9050919050565b7f45524332303a207472616e7366657220746f20746865207a65726f206164647260008201527f6573730000000000000000000000000000000000000000000000000000000000602082015250565b60006125cc602383611722565b91506125d782612570565b604082019050919050565b600060208201905081810360008301526125fb816125bf565b9050919050565b7f45524332303a207472616e7366657220616d6f756e742065786365656473206260008201527f616c616e63650000000000000000000000000000000000000000000000000000602082015250565b600061265e602683611722565b915061266982612602565b604082019050919050565b6000602082019050818103600083015261268d81612651565b9050919050565b7f45524332303a206d696e7420746f20746865207a65726f206164647265737300600082015250565b60006126ca601f83611722565b91506126d582612694565b602082019050919050565b600060208201905081810360008301526126f9816126bd565b905091905056fea2646970667358221220d1617c20c83e13b5a579795406541d4e4f4b57983e394879e3167e0907c8aae964736f6c63430008110033",
  "linkReferences": {},
  "deployedLinkReferences": {}
}