{
  "_format": "hh-sol-artifact-1",
  "contractName": "Ladder",
  "sourceName": "contracts/LOR.sol",
  "abi": [
    {
      "inputs": [],
      "stateMutability": "nonpayable",
      "type": "constructor"
    },
    {
      "anonymous": false,
      "inputs": [
        {
          "indexed": true,
          "internalType": "address",
          "name": "owner",
          "type": "address"
        },
        {
          "indexed": true,
          "internalType": "address",
          "name": "spender",
          "type": "address"
        },
        {
          "indexed": false,
          "internalType": "uint256",
          "name": "value",
          "type": "uint256"
        }
      ],
      "name": "Approval",
      "type": "event"
    },
    {
      "anonymous": false,
      "inputs": [
        {
          "indexed": true,
          "internalType": "address",
          "name": "user",
          "type": "address"
        },
        {
          "indexed": true,
          "internalType": "uint256",
          "name": "reward",
          "type": "uint256"
        }
      ],
      "name": "InitialReward",
      "type": "event"
    },
    {
      "anonymous": false,
      "inputs": [
        {
          "indexed": true,
          "internalType": "address",
          "name": "codeUsedBy",
          "type": "address"
        },
        {
          "indexed": true,
          "internalType": "address",
          "name": "codeUsedOf",
          "type": "address"
        },
        {
          "indexed": true,
          "internalType": "uint256",
          "name": "amount",
          "type": "uint256"
        }
      ],
      "name": "ReferalReward",
      "type": "event"
    },
    {
      "anonymous": false,
      "inputs": [
        {
          "indexed": true,
          "internalType": "address",
          "name": "from",
          "type": "address"
        },
        {
          "indexed": true,
          "internalType": "address",
          "name": "to",
          "type": "address"
        },
        {
          "indexed": false,
          "internalType": "uint256",
          "name": "value",
          "type": "uint256"
        }
      ],
      "name": "Transfer",
      "type": "event"
    },
    {
      "inputs": [
        {
          "internalType": "address",
          "name": "owner",
          "type": "address"
        },
        {
          "internalType": "address",
          "name": "spender",
          "type": "address"
        }
      ],
      "name": "allowance",
      "outputs": [
        {
          "internalType": "uint256",
          "name": "",
          "type": "uint256"
        }
      ],
      "stateMutability": "view",
      "type": "function"
    },
    {
      "inputs": [
        {
          "internalType": "address",
          "name": "spender",
          "type": "address"
        },
        {
          "internalType": "uint256",
          "name": "amount",
          "type": "uint256"
        }
      ],
      "name": "approve",
      "outputs": [
        {
          "internalType": "bool",
          "name": "",
          "type": "bool"
        }
      ],
      "stateMutability": "nonpayable",
      "type": "function"
    },
    {
      "inputs": [
        {
          "internalType": "address",
          "name": "account",
          "type": "address"
        }
      ],
      "name": "balanceOf",
      "outputs": [
        {
          "internalType": "uint256",
          "name": "",
          "type": "uint256"
        }
      ],
      "stateMutability": "view",
      "type": "function"
    },
    {
      "inputs": [],
      "name": "checkFunds",
      "outputs": [
        {
          "internalType": "uint256",
          "name": "",
          "type": "uint256"
        }
      ],
      "stateMutability": "view",
      "type": "function"
    },
    {
      "inputs": [],
      "name": "decimals",
      "outputs": [
        {
          "internalType": "uint8",
          "name": "",
          "type": "uint8"
        }
      ],
      "stateMutability": "view",
      "type": "function"
    },
    {
      "inputs": [
        {
          "internalType": "address",
          "name": "spender",
          "type": "address"
        },
        {
          "internalType": "uint256",
          "name": "subtractedValue",
          "type": "uint256"
        }
      ],
      "name": "decreaseAllowance",
      "outputs": [
        {
          "internalType": "bool",
          "name": "",
          "type": "bool"
        }
      ],
      "stateMutability": "nonpayable",
      "type": "function"
    },
    {
      "inputs": [
        {
          "internalType": "uint256",
          "name": "_amount",
          "type": "uint256"
        }
      ],
      "name": "deposite",
      "outputs": [],
      "stateMutability": "payable",
      "type": "function"
    },
    {
      "inputs": [],
      "name": "getBalance",
      "outputs": [
        {
          "internalType": "uint256",
          "name": "",
          "type": "uint256"
        }
      ],
      "stateMutability": "view",
      "type": "function"
    },
    {
      "inputs": [
        {
          "internalType": "address",
          "name": "spender",
          "type": "address"
        },
        {
          "internalType": "uint256",
          "name": "addedValue",
          "type": "uint256"
        }
      ],
      "name": "increaseAllowance",
      "outputs": [
        {
          "internalType": "bool",
          "name": "",
          "type": "bool"
        }
      ],
      "stateMutability": "nonpayable",
      "type": "function"
    },
    {
      "inputs": [],
      "name": "name",
      "outputs": [
        {
          "internalType": "string",
          "name": "",
          "type": "string"
        }
      ],
      "stateMutability": "view",
      "type": "function"
    },
    {
      "inputs": [
        {
          "internalType": "string",
          "name": "referalCode",
          "type": "string"
        },
        {
          "internalType": "string",
          "name": "code",
          "type": "string"
        }
      ],
      "name": "register",
      "outputs": [],
      "stateMutability": "nonpayable",
      "type": "function"
    },
    {
      "inputs": [],
      "name": "signupBonus",
      "outputs": [
        {
          "internalType": "uint256",
          "name": "",
          "type": "uint256"
        }
      ],
      "stateMutability": "view",
      "type": "function"
    },
    {
      "inputs": [],
      "name": "symbol",
      "outputs": [
        {
          "internalType": "string",
          "name": "",
          "type": "string"
        }
      ],
      "stateMutability": "view",
      "type": "function"
    },
    {
      "inputs": [],
      "name": "totalSupply",
      "outputs": [
        {
          "internalType": "uint256",
          "name": "",
          "type": "uint256"
        }
      ],
      "stateMutability": "view",
      "type": "function"
    },
    {
      "inputs": [
        {
          "internalType": "address",
          "name": "to",
          "type": "address"
        },
        {
          "internalType": "uint256",
          "name": "amount",
          "type": "uint256"
        }
      ],
      "name": "transfer",
      "outputs": [
        {
          "internalType": "bool",
          "name": "",
          "type": "bool"
        }
      ],
      "stateMutability": "nonpayable",
      "type": "function"
    },
    {
      "inputs": [
        {
          "internalType": "address",
          "name": "from",
          "type": "address"
        },
        {
          "internalType": "address",
          "name": "to",
          "type": "address"
        },
        {
          "internalType": "uint256",
          "name": "amount",
          "type": "uint256"
        }
      ],
      "name": "transferFrom",
      "outputs": [
        {
          "internalType": "bool",
          "name": "",
          "type": "bool"
        }
      ],
      "stateMutability": "nonpayable",
      "type": "function"
    },
    {
      "inputs": [
        {
          "internalType": "uint256",
          "name": "_amount",
          "type": "uint256"
        }
      ],
      "name": "withdraw",
      "outputs": [],
      "stateMutability": "payable",
      "type": "function"
    }
  ],
  "bytecode": "0x608060405260646005553480156200001657600080fd5b506040518060400160405280600d81526020017f556e695175616c206954656368000000000000000000000000000000000000008152506040518060400160405280600281526020017f555100000000000000000000000000000000000000000000000000000000000081525081600390816200009491906200043b565b508060049081620000a691906200043b565b5050506064600f600554620000bc919062000551565b620000c89190620005cb565b600a600060018152602001908152602001600020819055506064600c600554620000f3919062000551565b620000ff9190620005cb565b600a60006002815260200190815260200160002081905550606460096005546200012a919062000551565b620001369190620005cb565b600a600060038152602001908152602001600020819055506064600760055462000161919062000551565b6200016d9190620005cb565b600a6000600481526020019081526020016000208190555060646005805462000197919062000551565b620001a39190620005cb565b600a6000600581526020019081526020016000208190555062000603565b600081519050919050565b7f4e487b7100000000000000000000000000000000000000000000000000000000600052604160045260246000fd5b7f4e487b7100000000000000000000000000000000000000000000000000000000600052602260045260246000fd5b600060028204905060018216806200024357607f821691505b602082108103620002595762000258620001fb565b5b50919050565b60008190508160005260206000209050919050565b60006020601f8301049050919050565b600082821b905092915050565b600060088302620002c37fffffffffffffffffffffffffffffffffffffffffffffffffffffffffffffffff8262000284565b620002cf868362000284565b95508019841693508086168417925050509392505050565b6000819050919050565b6000819050919050565b60006200031c620003166200031084620002e7565b620002f1565b620002e7565b9050919050565b6000819050919050565b6200033883620002fb565b62000350620003478262000323565b84845462000291565b825550505050565b600090565b6200036762000358565b620003748184846200032d565b505050565b5b818110156200039c57620003906000826200035d565b6001810190506200037a565b5050565b601f821115620003eb57620003b5816200025f565b620003c08462000274565b81016020851015620003d0578190505b620003e8620003df8562000274565b83018262000379565b50505b505050565b600082821c905092915050565b60006200041060001984600802620003f0565b1980831691505092915050565b60006200042b8383620003fd565b9150826002028217905092915050565b6200044682620001c1565b67ffffffffffffffff811115620004625762000461620001cc565b5b6200046e82546200022a565b6200047b828285620003a0565b600060209050601f831160018114620004b357600084156200049e578287015190505b620004aa85826200041d565b8655506200051a565b601f198416620004c3866200025f565b60005b82811015620004ed57848901518255600182019150602085019450602081019050620004c6565b868310156200050d578489015162000509601f891682620003fd565b8355505b6001600288020188555050505b505050505050565b7f4e487b7100000000000000000000000000000000000000000000000000000000600052601160045260246000fd5b60006200055e82620002e7565b91506200056b83620002e7565b92508282026200057b81620002e7565b9150828204841483151762000595576200059462000522565b5b5092915050565b7f4e487b7100000000000000000000000000000000000000000000000000000000600052601260045260246000fd5b6000620005d882620002e7565b9150620005e583620002e7565b925082620005f857620005f76200059c565b5b828204905092915050565b61276280620006136000396000f3fe6080604052600436106100fe5760003560e01c8063313ce5671161009557806370a082311161006457806370a082311461031d57806395d89b411461035a578063a457c2d714610385578063a9059cbb146103c2578063dd62ed3e146103ff576100fe565b8063313ce56714610261578063395093511461028c5780633ffbd47f146102c957806367cb52d8146102f2576100fe565b806318160ddd116100d157806318160ddd146101c157806323b872dd146101ec5780632e1a7d4d146102295780633104562b14610245576100fe565b806306fdde031461010357806308d233dc1461012e578063095ea7b31461015957806312065fe014610196575b600080fd5b34801561010f57600080fd5b5061011861043c565b6040516101259190611885565b60405180910390f35b34801561013a57600080fd5b506101436104ce565b60405161015091906118c0565b60405180910390f35b34801561016557600080fd5b50610180600480360381019061017b9190611979565b610515565b60405161018d91906119d4565b60405180910390f35b3480156101a257600080fd5b506101ab610538565b6040516101b891906118c0565b60405180910390f35b3480156101cd57600080fd5b506101d661057f565b6040516101e391906118c0565b60405180910390f35b3480156101f857600080fd5b50610213600480360381019061020e91906119ef565b610589565b60405161022091906119d4565b60405180910390f35b610243600480360381019061023e9190611a42565b6105b8565b005b61025f600480360381019061025a9190611a42565b61072d565b005b34801561026d57600080fd5b50610276610820565b6040516102839190611a8b565b60405180910390f35b34801561029857600080fd5b506102b360048036038101906102ae9190611979565b610829565b6040516102c091906119d4565b60405180910390f35b3480156102d557600080fd5b506102f060048036038101906102eb9190611bdb565b610860565b005b3480156102fe57600080fd5b50610307610fc1565b60405161031491906118c0565b60405180910390f35b34801561032957600080fd5b50610344600480360381019061033f9190611c53565b610fc7565b60405161035191906118c0565b60405180910390f35b34801561036657600080fd5b5061036f61100f565b60405161037c9190611885565b60405180910390f35b34801561039157600080fd5b506103ac60048036038101906103a79190611979565b6110a1565b6040516103b991906119d4565b60405180910390f35b3480156103ce57600080fd5b506103e960048036038101906103e49190611979565b611118565b6040516103f691906119d4565b60405180910390f35b34801561040b57600080fd5b5061042660048036038101906104219190611c80565b61113b565b60405161043391906118c0565b60405180910390f35b60606003805461044b90611cef565b80601f016020809104026020016040519081016040528092919081815260200182805461047790611cef565b80156104c45780601f10610499576101008083540402835291602001916104c4565b820191906000526020600020905b8154815290600101906020018083116104a757829003601f168201915b5050505050905090565b6000600c60003373ffffffffffffffffffffffffffffffffffffffff1673ffffffffffffffffffffffffffffffffffffffff16815260200190815260200160002054905090565b6000806105206111c2565b905061052d8185856111ca565b600191505092915050565b6000600b60003373ffffffffffffffffffffffffffffffffffffffff1673ffffffffffffffffffffffffffffffffffffffff16815260200190815260200160002054905090565b6000600254905090565b6000806105946111c2565b90506105a1858285611393565b6105ac85858561141f565b60019150509392505050565b80600c60003373ffffffffffffffffffffffffffffffffffffffff1673ffffffffffffffffffffffffffffffffffffffff16815260200190815260200160002054101561063a576040517f08c379a000000000000000000000000000000000000000000000000000000000815260040161063190611d6c565b60405180910390fd5b6106583033670de0b6b3a7640000846106539190611dbb565b61141f565b670de0b6b3a76400008161066c9190611dbb565b600c60003373ffffffffffffffffffffffffffffffffffffffff1673ffffffffffffffffffffffffffffffffffffffff16815260200190815260200160002060008282546106ba9190611dfd565b92505081905550670de0b6b3a7640000816106d59190611dbb565b600b60003373ffffffffffffffffffffffffffffffffffffffff1673ffffffffffffffffffffffffffffffffffffffff16815260200190815260200160002060008282546107239190611e31565b9250508190555050565b61074b3330670de0b6b3a7640000846107469190611dbb565b61141f565b670de0b6b3a76400008161075f9190611dbb565b600c60003373ffffffffffffffffffffffffffffffffffffffff1673ffffffffffffffffffffffffffffffffffffffff16815260200190815260200160002060008282546107ad9190611e31565b92505081905550670de0b6b3a7640000816107c89190611dbb565b600b60003373ffffffffffffffffffffffffffffffffffffffff1673ffffffffffffffffffffffffffffffffffffffff16815260200190815260200160002060008282546108169190611dfd565b9250508190555050565b60006012905090565b6000806108346111c2565b9050610855818585610846858961113b565b6108509190611e31565b6111ca565b600191505092915050565b80805190602001208280519060200120036108b0576040517f08c379a00000000000000000000000000000000000000000000000000000000081526004016108a790611ed7565b60405180910390fd5b60001515600760003373ffffffffffffffffffffffffffffffffffffffff1673ffffffffffffffffffffffffffffffffffffffff16815260200190815260200160002060009054906101000a900460ff16151514610943576040517f08c379a000000000000000000000000000000000000000000000000000000000815260040161093a90611f43565b60405180910390fd5b600015156008826040516109579190611f9f565b908152602001604051809103902060009054906101000a900460ff161515146109b5576040517f08c379a00000000000000000000000000000000000000000000000000000000081526004016109ac90612002565b60405180910390fd5b6109d433670de0b6b3a76400006005546109cf9190611dbb565b611695565b6005543373ffffffffffffffffffffffffffffffffffffffff167fdfa3e9910fe4ea0abbfdf02f2db465eb59e6e87d20b57307631b207e4bba96bd60405160405180910390a3670de0b6b3a7640000600554610a309190611dbb565b600b60003373ffffffffffffffffffffffffffffffffffffffff1673ffffffffffffffffffffffffffffffffffffffff168152602001908152602001600020819055506001600760003373ffffffffffffffffffffffffffffffffffffffff1673ffffffffffffffffffffffffffffffffffffffff16815260200190815260200160002060006101000a81548160ff0219169083151502179055506001600882604051610add9190611f9f565b908152602001604051809103902060006101000a81548160ff02191690831515021790555060405180608001604052803373ffffffffffffffffffffffffffffffffffffffff168152602001600554815260200182815260200183815250600982604051610b4b9190611f9f565b908152602001604051809103902060008201518160000160006101000a81548173ffffffffffffffffffffffffffffffffffffffff021916908373ffffffffffffffffffffffffffffffffffffffff160217905550602082015181600101556040820151816002019081610bbf91906121ce565b506060820151816003019081610bd591906121ce565b5090505060405180608001604052803373ffffffffffffffffffffffffffffffffffffffff168152602001600554815260200182815260200183815250600660003373ffffffffffffffffffffffffffffffffffffffff1673ffffffffffffffffffffffffffffffffffffffff16815260200190815260200160002060008201518160000160006101000a81548173ffffffffffffffffffffffffffffffffffffffff021916908373ffffffffffffffffffffffffffffffffffffffff160217905550602082015181600101556040820151816002019081610cb791906121ce565b506060820151816003019081610ccd91906121ce565b509050506040518060200160405280600081525080519060200120828051906020012014610fbd576000600190505b60058111610fbb576000600984604051610d169190611f9f565b90815260200160405180910390209050600073ffffffffffffffffffffffffffffffffffffffff168160000160009054906101000a900473ffffffffffffffffffffffffffffffffffffffff1673ffffffffffffffffffffffffffffffffffffffff1614610f1857610dd28160000160009054906101000a900473ffffffffffffffffffffffffffffffffffffffff16670de0b6b3a7640000600a600086815260200190815260200160002054610dcd9190611dbb565b611695565b670de0b6b3a7640000600a600084815260200190815260200160002054610df99190611dbb565b600b60008360000160009054906101000a900473ffffffffffffffffffffffffffffffffffffffff1673ffffffffffffffffffffffffffffffffffffffff1673ffffffffffffffffffffffffffffffffffffffff1681526020019081526020016000206000828254610e6b9190611e31565b92505081905550670de0b6b3a7640000600a600084815260200190815260200160002054610e999190611dbb565b8160000160009054906101000a900473ffffffffffffffffffffffffffffffffffffffff1673ffffffffffffffffffffffffffffffffffffffff163373ffffffffffffffffffffffffffffffffffffffff167f57cccde60e35b5d41e9ef05831a12eb1079b8add56fb8f9784316da04eeaeb4560405160405180910390a45b806003018054610f2790611cef565b80601f0160208091040260200160405190810160405280929190818152602001828054610f5390611cef565b8015610fa05780601f10610f7557610100808354040283529160200191610fa0565b820191906000526020600020905b815481529060010190602001808311610f8357829003601f168201915b50505050509350508080610fb3906122a0565b915050610cfc565b505b5050565b60055481565b60008060008373ffffffffffffffffffffffffffffffffffffffff1673ffffffffffffffffffffffffffffffffffffffff168152602001908152602001600020549050919050565b60606004805461101e90611cef565b80601f016020809104026020016040519081016040528092919081815260200182805461104a90611cef565b80156110975780601f1061106c57610100808354040283529160200191611097565b820191906000526020600020905b81548152906001019060200180831161107a57829003601f168201915b5050505050905090565b6000806110ac6111c2565b905060006110ba828661113b565b9050838110156110ff576040517f08c379a00000000000000000000000000000000000000000000000000000000081526004016110f69061235a565b60405180910390fd5b61110c82868684036111ca565b60019250505092915050565b6000806111236111c2565b905061113081858561141f565b600191505092915050565b6000600160008473ffffffffffffffffffffffffffffffffffffffff1673ffffffffffffffffffffffffffffffffffffffff16815260200190815260200160002060008373ffffffffffffffffffffffffffffffffffffffff1673ffffffffffffffffffffffffffffffffffffffff16815260200190815260200160002054905092915050565b600033905090565b600073ffffffffffffffffffffffffffffffffffffffff168373ffffffffffffffffffffffffffffffffffffffff1603611239576040517f08c379a0000000000000000000000000000000000000000000000000000000008152600401611230906123ec565b60405180910390fd5b600073ffffffffffffffffffffffffffffffffffffffff168273ffffffffffffffffffffffffffffffffffffffff16036112a8576040517f08c379a000000000000000000000000000000000000000000000000000000000815260040161129f9061247e565b60405180910390fd5b80600160008573ffffffffffffffffffffffffffffffffffffffff1673ffffffffffffffffffffffffffffffffffffffff16815260200190815260200160002060008473ffffffffffffffffffffffffffffffffffffffff1673ffffffffffffffffffffffffffffffffffffffff168152602001908152602001600020819055508173ffffffffffffffffffffffffffffffffffffffff168373ffffffffffffffffffffffffffffffffffffffff167f8c5be1e5ebec7d5bd14f71427d1e84f3dd0314c0f7b2291e5b200ac8c7c3b9258360405161138691906118c0565b60405180910390a3505050565b600061139f848461113b565b90507fffffffffffffffffffffffffffffffffffffffffffffffffffffffffffffffff8114611419578181101561140b576040517f08c379a0000000000000000000000000000000000000000000000000000000008152600401611402906124ea565b60405180910390fd5b61141884848484036111ca565b5b50505050565b600073ffffffffffffffffffffffffffffffffffffffff168373ffffffffffffffffffffffffffffffffffffffff160361148e576040517f08c379a00000000000000000000000000000000000000000000000000000000081526004016114859061257c565b60405180910390fd5b600073ffffffffffffffffffffffffffffffffffffffff168273ffffffffffffffffffffffffffffffffffffffff16036114fd576040517f08c379a00000000000000000000000000000000000000000000000000000000081526004016114f49061260e565b60405180910390fd5b6115088383836117eb565b60008060008573ffffffffffffffffffffffffffffffffffffffff1673ffffffffffffffffffffffffffffffffffffffff1681526020019081526020016000205490508181101561158e576040517f08c379a0000000000000000000000000000000000000000000000000000000008152600401611585906126a0565b60405180910390fd5b8181036000808673ffffffffffffffffffffffffffffffffffffffff1673ffffffffffffffffffffffffffffffffffffffff16815260200190815260200160002081905550816000808573ffffffffffffffffffffffffffffffffffffffff1673ffffffffffffffffffffffffffffffffffffffff168152602001908152602001600020600082825401925050819055508273ffffffffffffffffffffffffffffffffffffffff168473ffffffffffffffffffffffffffffffffffffffff167fddf252ad1be2c89b69c2b068fc378daa952ba7f163c4a11628f55a4df523b3ef8460405161167c91906118c0565b60405180910390a361168f8484846117f0565b50505050565b600073ffffffffffffffffffffffffffffffffffffffff168273ffffffffffffffffffffffffffffffffffffffff1603611704576040517f08c379a00000000000000000000000000000000000000000000000000000000081526004016116fb9061270c565b60405180910390fd5b611710600083836117eb565b80600260008282546117229190611e31565b92505081905550806000808473ffffffffffffffffffffffffffffffffffffffff1673ffffffffffffffffffffffffffffffffffffffff168152602001908152602001600020600082825401925050819055508173ffffffffffffffffffffffffffffffffffffffff16600073ffffffffffffffffffffffffffffffffffffffff167fddf252ad1be2c89b69c2b068fc378daa952ba7f163c4a11628f55a4df523b3ef836040516117d391906118c0565b60405180910390a36117e7600083836117f0565b5050565b505050565b505050565b600081519050919050565b600082825260208201905092915050565b60005b8381101561182f578082015181840152602081019050611814565b60008484015250505050565b6000601f19601f8301169050919050565b6000611857826117f5565b6118618185611800565b9350611871818560208601611811565b61187a8161183b565b840191505092915050565b6000602082019050818103600083015261189f818461184c565b905092915050565b6000819050919050565b6118ba816118a7565b82525050565b60006020820190506118d560008301846118b1565b92915050565b6000604051905090565b600080fd5b600080fd5b600073ffffffffffffffffffffffffffffffffffffffff82169050919050565b600061191a826118ef565b9050919050565b61192a8161190f565b811461193557600080fd5b50565b60008135905061194781611921565b92915050565b611956816118a7565b811461196157600080fd5b50565b6000813590506119738161194d565b92915050565b600080604083850312156119905761198f6118e5565b5b600061199e85828601611938565b92505060206119af85828601611964565b9150509250929050565b60008115159050919050565b6119ce816119b9565b82525050565b60006020820190506119e960008301846119c5565b92915050565b600080600060608486031215611a0857611a076118e5565b5b6000611a1686828701611938565b9350506020611a2786828701611938565b9250506040611a3886828701611964565b9150509250925092565b600060208284031215611a5857611a576118e5565b5b6000611a6684828501611964565b91505092915050565b600060ff82169050919050565b611a8581611a6f565b82525050565b6000602082019050611aa06000830184611a7c565b92915050565b600080fd5b600080fd5b7f4e487b7100000000000000000000000000000000000000000000000000000000600052604160045260246000fd5b611ae88261183b565b810181811067ffffffffffffffff82111715611b0757611b06611ab0565b5b80604052505050565b6000611b1a6118db565b9050611b268282611adf565b919050565b600067ffffffffffffffff821115611b4657611b45611ab0565b5b611b4f8261183b565b9050602081019050919050565b82818337600083830152505050565b6000611b7e611b7984611b2b565b611b10565b905082815260208101848484011115611b9a57611b99611aab565b5b611ba5848285611b5c565b509392505050565b600082601f830112611bc257611bc1611aa6565b5b8135611bd2848260208601611b6b565b91505092915050565b60008060408385031215611bf257611bf16118e5565b5b600083013567ffffffffffffffff811115611c1057611c0f6118ea565b5b611c1c85828601611bad565b925050602083013567ffffffffffffffff811115611c3d57611c3c6118ea565b5b611c4985828601611bad565b9150509250929050565b600060208284031215611c6957611c686118e5565b5b6000611c7784828501611938565b91505092915050565b60008060408385031215611c9757611c966118e5565b5b6000611ca585828601611938565b9250506020611cb685828601611938565b9150509250929050565b7f4e487b7100000000000000000000000000000000000000000000000000000000600052602260045260246000fd5b60006002820490506001821680611d0757607f821691505b602082108103611d1a57611d19611cc0565b5b50919050565b7f4e6f7420656e6f7567682066756e647300000000000000000000000000000000600082015250565b6000611d56601083611800565b9150611d6182611d20565b602082019050919050565b60006020820190508181036000830152611d8581611d49565b9050919050565b7f4e487b7100000000000000000000000000000000000000000000000000000000600052601160045260246000fd5b6000611dc6826118a7565b9150611dd1836118a7565b9250828202611ddf816118a7565b91508282048414831517611df657611df5611d8c565b5b5092915050565b6000611e08826118a7565b9150611e13836118a7565b9250828203905081811115611e2b57611e2a611d8c565b5b92915050565b6000611e3c826118a7565b9150611e47836118a7565b9250828201905080821115611e5f57611e5e611d8c565b5b92915050565b7f5265666572616c20636f64652063616e206e6f74206265207468652073616d6560008201527f20617320796f7572730000000000000000000000000000000000000000000000602082015250565b6000611ec1602983611800565b9150611ecc82611e65565b604082019050919050565b60006020820190508181036000830152611ef081611eb4565b9050919050565b7f5573657220657869737400000000000000000000000000000000000000000000600082015250565b6000611f2d600a83611800565b9150611f3882611ef7565b602082019050919050565b60006020820190508181036000830152611f5c81611f20565b9050919050565b600081905092915050565b6000611f79826117f5565b611f838185611f63565b9350611f93818560208601611811565b80840191505092915050565b6000611fab8284611f6e565b915081905092915050565b7f436f646520616c726564792074616b656e000000000000000000000000000000600082015250565b6000611fec601183611800565b9150611ff782611fb6565b602082019050919050565b6000602082019050818103600083015261201b81611fdf565b9050919050565b60008190508160005260206000209050919050565b60006020601f8301049050919050565b600082821b905092915050565b6000600883026120847fffffffffffffffffffffffffffffffffffffffffffffffffffffffffffffffff82612047565b61208e8683612047565b95508019841693508086168417925050509392505050565b6000819050919050565b60006120cb6120c66120c1846118a7565b6120a6565b6118a7565b9050919050565b6000819050919050565b6120e5836120b0565b6120f96120f1826120d2565b848454612054565b825550505050565b600090565b61210e612101565b6121198184846120dc565b505050565b5b8181101561213d57612132600082612106565b60018101905061211f565b5050565b601f8211156121825761215381612022565b61215c84612037565b8101602085101561216b578190505b61217f61217785612037565b83018261211e565b50505b505050565b600082821c905092915050565b60006121a560001984600802612187565b1980831691505092915050565b60006121be8383612194565b9150826002028217905092915050565b6121d7826117f5565b67ffffffffffffffff8111156121f0576121ef611ab0565b5b6121fa8254611cef565b612205828285612141565b600060209050601f8311600181146122385760008415612226578287015190505b61223085826121b2565b865550612298565b601f19841661224686612022565b60005b8281101561226e57848901518255600182019150602085019450602081019050612249565b8683101561228b5784890151612287601f891682612194565b8355505b6001600288020188555050505b505050505050565b60006122ab826118a7565b91507fffffffffffffffffffffffffffffffffffffffffffffffffffffffffffffffff82036122dd576122dc611d8c565b5b600182019050919050565b7f45524332303a2064656372656173656420616c6c6f77616e63652062656c6f7760008201527f207a65726f000000000000000000000000000000000000000000000000000000602082015250565b6000612344602583611800565b915061234f826122e8565b604082019050919050565b6000602082019050818103600083015261237381612337565b9050919050565b7f45524332303a20617070726f76652066726f6d20746865207a65726f2061646460008201527f7265737300000000000000000000000000000000000000000000000000000000602082015250565b60006123d6602483611800565b91506123e18261237a565b604082019050919050565b60006020820190508181036000830152612405816123c9565b9050919050565b7f45524332303a20617070726f766520746f20746865207a65726f20616464726560008201527f7373000000000000000000000000000000000000000000000000000000000000602082015250565b6000612468602283611800565b91506124738261240c565b604082019050919050565b600060208201905081810360008301526124978161245b565b9050919050565b7f45524332303a20696e73756666696369656e7420616c6c6f77616e6365000000600082015250565b60006124d4601d83611800565b91506124df8261249e565b602082019050919050565b60006020820190508181036000830152612503816124c7565b9050919050565b7f45524332303a207472616e736665722066726f6d20746865207a65726f20616460008201527f6472657373000000000000000000000000000000000000000000000000000000602082015250565b6000612566602583611800565b91506125718261250a565b604082019050919050565b6000602082019050818103600083015261259581612559565b9050919050565b7f45524332303a207472616e7366657220746f20746865207a65726f206164647260008201527f6573730000000000000000000000000000000000000000000000000000000000602082015250565b60006125f8602383611800565b91506126038261259c565b604082019050919050565b60006020820190508181036000830152612627816125eb565b9050919050565b7f45524332303a207472616e7366657220616d6f756e742065786365656473206260008201527f616c616e63650000000000000000000000000000000000000000000000000000602082015250565b600061268a602683611800565b91506126958261262e565b604082019050919050565b600060208201905081810360008301526126b98161267d565b9050919050565b7f45524332303a206d696e7420746f20746865207a65726f206164647265737300600082015250565b60006126f6601f83611800565b9150612701826126c0565b602082019050919050565b60006020820190508181036000830152612725816126e9565b905091905056fea2646970667358221220eba20dbc6e1a56fb57b39af8205a5289ab619c512e23f585b88ad70ce6b3e0be64736f6c63430008110033",
  "linkReferences": {},
  "deployedLinkReferences": {}
}