{
  "_format": "hh-sol-artifact-1",
  "contractName": "Ladder",
  "sourceName": "contracts/LOR.sol",
  "abi": [
    {
      "inputs": [],
      "stateMutability": "nonpayable",
      "type": "constructor"
    },
    {
      "anonymous": false,
      "inputs": [
        {
          "indexed": true,
          "internalType": "address",
          "name": "owner",
          "type": "address"
        },
        {
          "indexed": true,
          "internalType": "address",
          "name": "spender",
          "type": "address"
        },
        {
          "indexed": false,
          "internalType": "uint256",
          "name": "value",
          "type": "uint256"
        }
      ],
      "name": "Approval",
      "type": "event"
    },
    {
      "anonymous": false,
      "inputs": [
        {
          "indexed": true,
          "internalType": "address",
          "name": "user",
          "type": "address"
        },
        {
          "indexed": true,
          "internalType": "uint256",
          "name": "reward",
          "type": "uint256"
        }
      ],
      "name": "InitialReward",
      "type": "event"
    },
    {
      "anonymous": false,
      "inputs": [
        {
          "indexed": true,
          "internalType": "address",
          "name": "codeUsedBy",
          "type": "address"
        },
        {
          "indexed": true,
          "internalType": "address",
          "name": "codeUsedOf",
          "type": "address"
        },
        {
          "indexed": true,
          "internalType": "uint256",
          "name": "amount",
          "type": "uint256"
        }
      ],
      "name": "ReferalReward",
      "type": "event"
    },
    {
      "anonymous": false,
      "inputs": [
        {
          "indexed": true,
          "internalType": "address",
          "name": "from",
          "type": "address"
        },
        {
          "indexed": true,
          "internalType": "address",
          "name": "to",
          "type": "address"
        },
        {
          "indexed": false,
          "internalType": "uint256",
          "name": "value",
          "type": "uint256"
        }
      ],
      "name": "Transfer",
      "type": "event"
    },
    {
      "inputs": [
        {
          "internalType": "address",
          "name": "owner",
          "type": "address"
        },
        {
          "internalType": "address",
          "name": "spender",
          "type": "address"
        }
      ],
      "name": "allowance",
      "outputs": [
        {
          "internalType": "uint256",
          "name": "",
          "type": "uint256"
        }
      ],
      "stateMutability": "view",
      "type": "function"
    },
    {
      "inputs": [
        {
          "internalType": "address",
          "name": "spender",
          "type": "address"
        },
        {
          "internalType": "uint256",
          "name": "amount",
          "type": "uint256"
        }
      ],
      "name": "approve",
      "outputs": [
        {
          "internalType": "bool",
          "name": "",
          "type": "bool"
        }
      ],
      "stateMutability": "nonpayable",
      "type": "function"
    },
    {
      "inputs": [
        {
          "internalType": "address",
          "name": "account",
          "type": "address"
        }
      ],
      "name": "balanceOf",
      "outputs": [
        {
          "internalType": "uint256",
          "name": "",
          "type": "uint256"
        }
      ],
      "stateMutability": "view",
      "type": "function"
    },
    {
      "inputs": [],
      "name": "decimals",
      "outputs": [
        {
          "internalType": "uint8",
          "name": "",
          "type": "uint8"
        }
      ],
      "stateMutability": "view",
      "type": "function"
    },
    {
      "inputs": [
        {
          "internalType": "address",
          "name": "spender",
          "type": "address"
        },
        {
          "internalType": "uint256",
          "name": "subtractedValue",
          "type": "uint256"
        }
      ],
      "name": "decreaseAllowance",
      "outputs": [
        {
          "internalType": "bool",
          "name": "",
          "type": "bool"
        }
      ],
      "stateMutability": "nonpayable",
      "type": "function"
    },
    {
      "inputs": [
        {
          "internalType": "address",
          "name": "addr",
          "type": "address"
        }
      ],
      "name": "getBalance",
      "outputs": [
        {
          "internalType": "uint256",
          "name": "",
          "type": "uint256"
        }
      ],
      "stateMutability": "view",
      "type": "function"
    },
    {
      "inputs": [
        {
          "internalType": "address",
          "name": "spender",
          "type": "address"
        },
        {
          "internalType": "uint256",
          "name": "addedValue",
          "type": "uint256"
        }
      ],
      "name": "increaseAllowance",
      "outputs": [
        {
          "internalType": "bool",
          "name": "",
          "type": "bool"
        }
      ],
      "stateMutability": "nonpayable",
      "type": "function"
    },
    {
      "inputs": [],
      "name": "name",
      "outputs": [
        {
          "internalType": "string",
          "name": "",
          "type": "string"
        }
      ],
      "stateMutability": "view",
      "type": "function"
    },
    {
      "inputs": [
        {
          "internalType": "string",
          "name": "referalCode",
          "type": "string"
        },
        {
          "internalType": "string",
          "name": "code",
          "type": "string"
        }
      ],
      "name": "register",
      "outputs": [],
      "stateMutability": "nonpayable",
      "type": "function"
    },
    {
      "inputs": [],
      "name": "signupBonus",
      "outputs": [
        {
          "internalType": "uint256",
          "name": "",
          "type": "uint256"
        }
      ],
      "stateMutability": "view",
      "type": "function"
    },
    {
      "inputs": [],
      "name": "symbol",
      "outputs": [
        {
          "internalType": "string",
          "name": "",
          "type": "string"
        }
      ],
      "stateMutability": "view",
      "type": "function"
    },
    {
      "inputs": [],
      "name": "totalSupply",
      "outputs": [
        {
          "internalType": "uint256",
          "name": "",
          "type": "uint256"
        }
      ],
      "stateMutability": "view",
      "type": "function"
    },
    {
      "inputs": [
        {
          "internalType": "address",
          "name": "to",
          "type": "address"
        },
        {
          "internalType": "uint256",
          "name": "amount",
          "type": "uint256"
        }
      ],
      "name": "transfer",
      "outputs": [
        {
          "internalType": "bool",
          "name": "",
          "type": "bool"
        }
      ],
      "stateMutability": "nonpayable",
      "type": "function"
    },
    {
      "inputs": [
        {
          "internalType": "address",
          "name": "from",
          "type": "address"
        },
        {
          "internalType": "address",
          "name": "to",
          "type": "address"
        },
        {
          "internalType": "uint256",
          "name": "amount",
          "type": "uint256"
        }
      ],
      "name": "transferFrom",
      "outputs": [
        {
          "internalType": "bool",
          "name": "",
          "type": "bool"
        }
      ],
      "stateMutability": "nonpayable",
      "type": "function"
    }
  ],
  "bytecode": "0x608060405260646005553480156200001657600080fd5b506040518060400160405280600d81526020017f556e695175616c206954656368000000000000000000000000000000000000008152506040518060400160405280600281526020017f555100000000000000000000000000000000000000000000000000000000000081525081600390816200009491906200043b565b508060049081620000a691906200043b565b5050506064600f600554620000bc919062000551565b620000c89190620005cb565b600a600060018152602001908152602001600020819055506064600c600554620000f3919062000551565b620000ff9190620005cb565b600a60006002815260200190815260200160002081905550606460096005546200012a919062000551565b620001369190620005cb565b600a600060038152602001908152602001600020819055506064600760055462000161919062000551565b6200016d9190620005cb565b600a6000600481526020019081526020016000208190555060646005805462000197919062000551565b620001a39190620005cb565b600a6000600581526020019081526020016000208190555062000603565b600081519050919050565b7f4e487b7100000000000000000000000000000000000000000000000000000000600052604160045260246000fd5b7f4e487b7100000000000000000000000000000000000000000000000000000000600052602260045260246000fd5b600060028204905060018216806200024357607f821691505b602082108103620002595762000258620001fb565b5b50919050565b60008190508160005260206000209050919050565b60006020601f8301049050919050565b600082821b905092915050565b600060088302620002c37fffffffffffffffffffffffffffffffffffffffffffffffffffffffffffffffff8262000284565b620002cf868362000284565b95508019841693508086168417925050509392505050565b6000819050919050565b6000819050919050565b60006200031c620003166200031084620002e7565b620002f1565b620002e7565b9050919050565b6000819050919050565b6200033883620002fb565b62000350620003478262000323565b84845462000291565b825550505050565b600090565b6200036762000358565b620003748184846200032d565b505050565b5b818110156200039c57620003906000826200035d565b6001810190506200037a565b5050565b601f821115620003eb57620003b5816200025f565b620003c08462000274565b81016020851015620003d0578190505b620003e8620003df8562000274565b83018262000379565b50505b505050565b600082821c905092915050565b60006200041060001984600802620003f0565b1980831691505092915050565b60006200042b8383620003fd565b9150826002028217905092915050565b6200044682620001c1565b67ffffffffffffffff811115620004625762000461620001cc565b5b6200046e82546200022a565b6200047b828285620003a0565b600060209050601f831160018114620004b357600084156200049e578287015190505b620004aa85826200041d565b8655506200051a565b601f198416620004c3866200025f565b60005b82811015620004ed57848901518255600182019150602085019450602081019050620004c6565b868310156200050d578489015162000509601f891682620003fd565b8355505b6001600288020188555050505b505050505050565b7f4e487b7100000000000000000000000000000000000000000000000000000000600052601160045260246000fd5b60006200055e82620002e7565b91506200056b83620002e7565b92508282026200057b81620002e7565b9150828204841483151762000595576200059462000522565b5b5092915050565b7f4e487b7100000000000000000000000000000000000000000000000000000000600052601260045260246000fd5b6000620005d882620002e7565b9150620005e583620002e7565b925082620005f857620005f76200059c565b5b828204905092915050565b61219d80620006136000396000f3fe608060405234801561001057600080fd5b50600436106100ea5760003560e01c806367cb52d81161008c578063a457c2d711610066578063a457c2d714610261578063a9059cbb14610291578063dd62ed3e146102c1578063f8b2cb4f146102f1576100ea565b806367cb52d8146101f557806370a082311461021357806395d89b4114610243576100ea565b806323b872dd116100c857806323b872dd1461015b578063313ce5671461018b57806339509351146101a95780633ffbd47f146101d9576100ea565b806306fdde03146100ef578063095ea7b31461010d57806318160ddd1461013d575b600080fd5b6100f7610321565b604051610104919061138d565b60405180910390f35b61012760048036038101906101229190611457565b6103b3565b60405161013491906114b2565b60405180910390f35b6101456103d6565b60405161015291906114dc565b60405180910390f35b610175600480360381019061017091906114f7565b6103e0565b60405161018291906114b2565b60405180910390f35b61019361040f565b6040516101a09190611566565b60405180910390f35b6101c360048036038101906101be9190611457565b610418565b6040516101d091906114b2565b60405180910390f35b6101f360048036038101906101ee91906116b6565b61044f565b005b6101fd610ab7565b60405161020a91906114dc565b60405180910390f35b61022d6004803603810190610228919061172e565b610abd565b60405161023a91906114dc565b60405180910390f35b61024b610b05565b604051610258919061138d565b60405180910390f35b61027b60048036038101906102769190611457565b610b97565b60405161028891906114b2565b60405180910390f35b6102ab60048036038101906102a69190611457565b610c0e565b6040516102b891906114b2565b60405180910390f35b6102db60048036038101906102d6919061175b565b610c31565b6040516102e891906114dc565b60405180910390f35b61030b6004803603810190610306919061172e565b610cb8565b60405161031891906114dc565b60405180910390f35b606060038054610330906117ca565b80601f016020809104026020016040519081016040528092919081815260200182805461035c906117ca565b80156103a95780601f1061037e576101008083540402835291602001916103a9565b820191906000526020600020905b81548152906001019060200180831161038c57829003601f168201915b5050505050905090565b6000806103be610cca565b90506103cb818585610cd2565b600191505092915050565b6000600254905090565b6000806103eb610cca565b90506103f8858285610e9b565b610403858585610f27565b60019150509392505050565b60006012905090565b600080610423610cca565b90506104448185856104358589610c31565b61043f919061182a565b610cd2565b600191505092915050565b808051906020012082805190602001200361049f576040517f08c379a0000000000000000000000000000000000000000000000000000000008152600401610496906118d0565b60405180910390fd5b60001515600760003373ffffffffffffffffffffffffffffffffffffffff1673ffffffffffffffffffffffffffffffffffffffff16815260200190815260200160002060009054906101000a900460ff16151514610532576040517f08c379a00000000000000000000000000000000000000000000000000000000081526004016105299061193c565b60405180910390fd5b600015156008826040516105469190611998565b908152602001604051809103902060009054906101000a900460ff161515146105a4576040517f08c379a000000000000000000000000000000000000000000000000000000000815260040161059b906119fb565b60405180910390fd5b6105c333670de0b6b3a76400006005546105be9190611a1b565b61119d565b6005543373ffffffffffffffffffffffffffffffffffffffff167fdfa3e9910fe4ea0abbfdf02f2db465eb59e6e87d20b57307631b207e4bba96bd60405160405180910390a36001600760003373ffffffffffffffffffffffffffffffffffffffff1673ffffffffffffffffffffffffffffffffffffffff16815260200190815260200160002060006101000a81548160ff02191690831515021790555060016008826040516106739190611998565b908152602001604051809103902060006101000a81548160ff02191690831515021790555060405180608001604052803373ffffffffffffffffffffffffffffffffffffffff1681526020016005548152602001828152602001838152506009826040516106e19190611998565b908152602001604051809103902060008201518160000160006101000a81548173ffffffffffffffffffffffffffffffffffffffff021916908373ffffffffffffffffffffffffffffffffffffffff1602179055506020820151816001015560408201518160020190816107559190611c09565b50606082015181600301908161076b9190611c09565b5090505060405180608001604052803373ffffffffffffffffffffffffffffffffffffffff168152602001600554815260200182815260200183815250600660003373ffffffffffffffffffffffffffffffffffffffff1673ffffffffffffffffffffffffffffffffffffffff16815260200190815260200160002060008201518160000160006101000a81548173ffffffffffffffffffffffffffffffffffffffff021916908373ffffffffffffffffffffffffffffffffffffffff16021790555060208201518160010155604082015181600201908161084d9190611c09565b5060608201518160030190816108639190611c09565b509050506040518060200160405280600081525080519060200120828051906020012014610ab3576000600190505b60058111610ab15760006009846040516108ac9190611998565b90815260200160405180910390209050600073ffffffffffffffffffffffffffffffffffffffff168160000160009054906101000a900473ffffffffffffffffffffffffffffffffffffffff1673ffffffffffffffffffffffffffffffffffffffff1614610a0e576109688160000160009054906101000a900473ffffffffffffffffffffffffffffffffffffffff16670de0b6b3a7640000600a6000868152602001908152602001600020546109639190611a1b565b61119d565b670de0b6b3a7640000600a60008481526020019081526020016000205461098f9190611a1b565b8160000160009054906101000a900473ffffffffffffffffffffffffffffffffffffffff1673ffffffffffffffffffffffffffffffffffffffff163373ffffffffffffffffffffffffffffffffffffffff167f57cccde60e35b5d41e9ef05831a12eb1079b8add56fb8f9784316da04eeaeb4560405160405180910390a45b806003018054610a1d906117ca565b80601f0160208091040260200160405190810160405280929190818152602001828054610a49906117ca565b8015610a965780601f10610a6b57610100808354040283529160200191610a96565b820191906000526020600020905b815481529060010190602001808311610a7957829003601f168201915b50505050509350508080610aa990611cdb565b915050610892565b505b5050565b60055481565b60008060008373ffffffffffffffffffffffffffffffffffffffff1673ffffffffffffffffffffffffffffffffffffffff168152602001908152602001600020549050919050565b606060048054610b14906117ca565b80601f0160208091040260200160405190810160405280929190818152602001828054610b40906117ca565b8015610b8d5780601f10610b6257610100808354040283529160200191610b8d565b820191906000526020600020905b815481529060010190602001808311610b7057829003601f168201915b5050505050905090565b600080610ba2610cca565b90506000610bb08286610c31565b905083811015610bf5576040517f08c379a0000000000000000000000000000000000000000000000000000000008152600401610bec90611d95565b60405180910390fd5b610c028286868403610cd2565b60019250505092915050565b600080610c19610cca565b9050610c26818585610f27565b600191505092915050565b6000600160008473ffffffffffffffffffffffffffffffffffffffff1673ffffffffffffffffffffffffffffffffffffffff16815260200190815260200160002060008373ffffffffffffffffffffffffffffffffffffffff1673ffffffffffffffffffffffffffffffffffffffff16815260200190815260200160002054905092915050565b6000610cc382610abd565b9050919050565b600033905090565b600073ffffffffffffffffffffffffffffffffffffffff168373ffffffffffffffffffffffffffffffffffffffff1603610d41576040517f08c379a0000000000000000000000000000000000000000000000000000000008152600401610d3890611e27565b60405180910390fd5b600073ffffffffffffffffffffffffffffffffffffffff168273ffffffffffffffffffffffffffffffffffffffff1603610db0576040517f08c379a0000000000000000000000000000000000000000000000000000000008152600401610da790611eb9565b60405180910390fd5b80600160008573ffffffffffffffffffffffffffffffffffffffff1673ffffffffffffffffffffffffffffffffffffffff16815260200190815260200160002060008473ffffffffffffffffffffffffffffffffffffffff1673ffffffffffffffffffffffffffffffffffffffff168152602001908152602001600020819055508173ffffffffffffffffffffffffffffffffffffffff168373ffffffffffffffffffffffffffffffffffffffff167f8c5be1e5ebec7d5bd14f71427d1e84f3dd0314c0f7b2291e5b200ac8c7c3b92583604051610e8e91906114dc565b60405180910390a3505050565b6000610ea78484610c31565b90507fffffffffffffffffffffffffffffffffffffffffffffffffffffffffffffffff8114610f215781811015610f13576040517f08c379a0000000000000000000000000000000000000000000000000000000008152600401610f0a90611f25565b60405180910390fd5b610f208484848403610cd2565b5b50505050565b600073ffffffffffffffffffffffffffffffffffffffff168373ffffffffffffffffffffffffffffffffffffffff1603610f96576040517f08c379a0000000000000000000000000000000000000000000000000000000008152600401610f8d90611fb7565b60405180910390fd5b600073ffffffffffffffffffffffffffffffffffffffff168273ffffffffffffffffffffffffffffffffffffffff1603611005576040517f08c379a0000000000000000000000000000000000000000000000000000000008152600401610ffc90612049565b60405180910390fd5b6110108383836112f3565b60008060008573ffffffffffffffffffffffffffffffffffffffff1673ffffffffffffffffffffffffffffffffffffffff16815260200190815260200160002054905081811015611096576040517f08c379a000000000000000000000000000000000000000000000000000000000815260040161108d906120db565b60405180910390fd5b8181036000808673ffffffffffffffffffffffffffffffffffffffff1673ffffffffffffffffffffffffffffffffffffffff16815260200190815260200160002081905550816000808573ffffffffffffffffffffffffffffffffffffffff1673ffffffffffffffffffffffffffffffffffffffff168152602001908152602001600020600082825401925050819055508273ffffffffffffffffffffffffffffffffffffffff168473ffffffffffffffffffffffffffffffffffffffff167fddf252ad1be2c89b69c2b068fc378daa952ba7f163c4a11628f55a4df523b3ef8460405161118491906114dc565b60405180910390a36111978484846112f8565b50505050565b600073ffffffffffffffffffffffffffffffffffffffff168273ffffffffffffffffffffffffffffffffffffffff160361120c576040517f08c379a000000000000000000000000000000000000000000000000000000000815260040161120390612147565b60405180910390fd5b611218600083836112f3565b806002600082825461122a919061182a565b92505081905550806000808473ffffffffffffffffffffffffffffffffffffffff1673ffffffffffffffffffffffffffffffffffffffff168152602001908152602001600020600082825401925050819055508173ffffffffffffffffffffffffffffffffffffffff16600073ffffffffffffffffffffffffffffffffffffffff167fddf252ad1be2c89b69c2b068fc378daa952ba7f163c4a11628f55a4df523b3ef836040516112db91906114dc565b60405180910390a36112ef600083836112f8565b5050565b505050565b505050565b600081519050919050565b600082825260208201905092915050565b60005b8381101561133757808201518184015260208101905061131c565b60008484015250505050565b6000601f19601f8301169050919050565b600061135f826112fd565b6113698185611308565b9350611379818560208601611319565b61138281611343565b840191505092915050565b600060208201905081810360008301526113a78184611354565b905092915050565b6000604051905090565b600080fd5b600080fd5b600073ffffffffffffffffffffffffffffffffffffffff82169050919050565b60006113ee826113c3565b9050919050565b6113fe816113e3565b811461140957600080fd5b50565b60008135905061141b816113f5565b92915050565b6000819050919050565b61143481611421565b811461143f57600080fd5b50565b6000813590506114518161142b565b92915050565b6000806040838503121561146e5761146d6113b9565b5b600061147c8582860161140c565b925050602061148d85828601611442565b9150509250929050565b60008115159050919050565b6114ac81611497565b82525050565b60006020820190506114c760008301846114a3565b92915050565b6114d681611421565b82525050565b60006020820190506114f160008301846114cd565b92915050565b6000806000606084860312156115105761150f6113b9565b5b600061151e8682870161140c565b935050602061152f8682870161140c565b925050604061154086828701611442565b9150509250925092565b600060ff82169050919050565b6115608161154a565b82525050565b600060208201905061157b6000830184611557565b92915050565b600080fd5b600080fd5b7f4e487b7100000000000000000000000000000000000000000000000000000000600052604160045260246000fd5b6115c382611343565b810181811067ffffffffffffffff821117156115e2576115e161158b565b5b80604052505050565b60006115f56113af565b905061160182826115ba565b919050565b600067ffffffffffffffff8211156116215761162061158b565b5b61162a82611343565b9050602081019050919050565b82818337600083830152505050565b600061165961165484611606565b6115eb565b90508281526020810184848401111561167557611674611586565b5b611680848285611637565b509392505050565b600082601f83011261169d5761169c611581565b5b81356116ad848260208601611646565b91505092915050565b600080604083850312156116cd576116cc6113b9565b5b600083013567ffffffffffffffff8111156116eb576116ea6113be565b5b6116f785828601611688565b925050602083013567ffffffffffffffff811115611718576117176113be565b5b61172485828601611688565b9150509250929050565b600060208284031215611744576117436113b9565b5b60006117528482850161140c565b91505092915050565b60008060408385031215611772576117716113b9565b5b60006117808582860161140c565b92505060206117918582860161140c565b9150509250929050565b7f4e487b7100000000000000000000000000000000000000000000000000000000600052602260045260246000fd5b600060028204905060018216806117e257607f821691505b6020821081036117f5576117f461179b565b5b50919050565b7f4e487b7100000000000000000000000000000000000000000000000000000000600052601160045260246000fd5b600061183582611421565b915061184083611421565b9250828201905080821115611858576118576117fb565b5b92915050565b7f5265666572616c20636f64652063616e206e6f74206265207468652073616d6560008201527f20617320796f7572730000000000000000000000000000000000000000000000602082015250565b60006118ba602983611308565b91506118c58261185e565b604082019050919050565b600060208201905081810360008301526118e9816118ad565b9050919050565b7f5573657220657869737400000000000000000000000000000000000000000000600082015250565b6000611926600a83611308565b9150611931826118f0565b602082019050919050565b6000602082019050818103600083015261195581611919565b9050919050565b600081905092915050565b6000611972826112fd565b61197c818561195c565b935061198c818560208601611319565b80840191505092915050565b60006119a48284611967565b915081905092915050565b7f436f646520616c726564792074616b656e000000000000000000000000000000600082015250565b60006119e5601183611308565b91506119f0826119af565b602082019050919050565b60006020820190508181036000830152611a14816119d8565b9050919050565b6000611a2682611421565b9150611a3183611421565b9250828202611a3f81611421565b91508282048414831517611a5657611a556117fb565b5b5092915050565b60008190508160005260206000209050919050565b60006020601f8301049050919050565b600082821b905092915050565b600060088302611abf7fffffffffffffffffffffffffffffffffffffffffffffffffffffffffffffffff82611a82565b611ac98683611a82565b95508019841693508086168417925050509392505050565b6000819050919050565b6000611b06611b01611afc84611421565b611ae1565b611421565b9050919050565b6000819050919050565b611b2083611aeb565b611b34611b2c82611b0d565b848454611a8f565b825550505050565b600090565b611b49611b3c565b611b54818484611b17565b505050565b5b81811015611b7857611b6d600082611b41565b600181019050611b5a565b5050565b601f821115611bbd57611b8e81611a5d565b611b9784611a72565b81016020851015611ba6578190505b611bba611bb285611a72565b830182611b59565b50505b505050565b600082821c905092915050565b6000611be060001984600802611bc2565b1980831691505092915050565b6000611bf98383611bcf565b9150826002028217905092915050565b611c12826112fd565b67ffffffffffffffff811115611c2b57611c2a61158b565b5b611c3582546117ca565b611c40828285611b7c565b600060209050601f831160018114611c735760008415611c61578287015190505b611c6b8582611bed565b865550611cd3565b601f198416611c8186611a5d565b60005b82811015611ca957848901518255600182019150602085019450602081019050611c84565b86831015611cc65784890151611cc2601f891682611bcf565b8355505b6001600288020188555050505b505050505050565b6000611ce682611421565b91507fffffffffffffffffffffffffffffffffffffffffffffffffffffffffffffffff8203611d1857611d176117fb565b5b600182019050919050565b7f45524332303a2064656372656173656420616c6c6f77616e63652062656c6f7760008201527f207a65726f000000000000000000000000000000000000000000000000000000602082015250565b6000611d7f602583611308565b9150611d8a82611d23565b604082019050919050565b60006020820190508181036000830152611dae81611d72565b9050919050565b7f45524332303a20617070726f76652066726f6d20746865207a65726f2061646460008201527f7265737300000000000000000000000000000000000000000000000000000000602082015250565b6000611e11602483611308565b9150611e1c82611db5565b604082019050919050565b60006020820190508181036000830152611e4081611e04565b9050919050565b7f45524332303a20617070726f766520746f20746865207a65726f20616464726560008201527f7373000000000000000000000000000000000000000000000000000000000000602082015250565b6000611ea3602283611308565b9150611eae82611e47565b604082019050919050565b60006020820190508181036000830152611ed281611e96565b9050919050565b7f45524332303a20696e73756666696369656e7420616c6c6f77616e6365000000600082015250565b6000611f0f601d83611308565b9150611f1a82611ed9565b602082019050919050565b60006020820190508181036000830152611f3e81611f02565b9050919050565b7f45524332303a207472616e736665722066726f6d20746865207a65726f20616460008201527f6472657373000000000000000000000000000000000000000000000000000000602082015250565b6000611fa1602583611308565b9150611fac82611f45565b604082019050919050565b60006020820190508181036000830152611fd081611f94565b9050919050565b7f45524332303a207472616e7366657220746f20746865207a65726f206164647260008201527f6573730000000000000000000000000000000000000000000000000000000000602082015250565b6000612033602383611308565b915061203e82611fd7565b604082019050919050565b6000602082019050818103600083015261206281612026565b9050919050565b7f45524332303a207472616e7366657220616d6f756e742065786365656473206260008201527f616c616e63650000000000000000000000000000000000000000000000000000602082015250565b60006120c5602683611308565b91506120d082612069565b604082019050919050565b600060208201905081810360008301526120f4816120b8565b9050919050565b7f45524332303a206d696e7420746f20746865207a65726f206164647265737300600082015250565b6000612131601f83611308565b915061213c826120fb565b602082019050919050565b6000602082019050818103600083015261216081612124565b905091905056fea264697066735822122022bfb3471dfb373fb747605720acecf765eb992b3e6d366491fd35131e57b48064736f6c63430008110033",
  "linkReferences": {},
  "deployedLinkReferences": {}
}