{
  "_format": "hh-sol-artifact-1",
  "contractName": "Ladder",
  "sourceName": "contracts/LOR.sol",
  "abi": [
    {
      "inputs": [],
      "stateMutability": "nonpayable",
      "type": "constructor"
    },
    {
      "anonymous": false,
      "inputs": [
        {
          "indexed": true,
          "internalType": "address",
          "name": "owner",
          "type": "address"
        },
        {
          "indexed": true,
          "internalType": "address",
          "name": "spender",
          "type": "address"
        },
        {
          "indexed": false,
          "internalType": "uint256",
          "name": "value",
          "type": "uint256"
        }
      ],
      "name": "Approval",
      "type": "event"
    },
    {
      "anonymous": false,
      "inputs": [
        {
          "indexed": true,
          "internalType": "address",
          "name": "user",
          "type": "address"
        },
        {
          "indexed": true,
          "internalType": "uint256",
          "name": "reward",
          "type": "uint256"
        }
      ],
      "name": "InitialReward",
      "type": "event"
    },
    {
      "anonymous": false,
      "inputs": [
        {
          "indexed": true,
          "internalType": "address",
          "name": "codeUsedBy",
          "type": "address"
        },
        {
          "indexed": true,
          "internalType": "address",
          "name": "codeUsedOf",
          "type": "address"
        },
        {
          "indexed": true,
          "internalType": "uint256",
          "name": "amount",
          "type": "uint256"
        }
      ],
      "name": "ReferalReward",
      "type": "event"
    },
    {
      "anonymous": false,
      "inputs": [
        {
          "indexed": true,
          "internalType": "address",
          "name": "from",
          "type": "address"
        },
        {
          "indexed": true,
          "internalType": "address",
          "name": "to",
          "type": "address"
        },
        {
          "indexed": false,
          "internalType": "uint256",
          "name": "value",
          "type": "uint256"
        }
      ],
      "name": "Transfer",
      "type": "event"
    },
    {
      "inputs": [
        {
          "internalType": "address",
          "name": "owner",
          "type": "address"
        },
        {
          "internalType": "address",
          "name": "spender",
          "type": "address"
        }
      ],
      "name": "allowance",
      "outputs": [
        {
          "internalType": "uint256",
          "name": "",
          "type": "uint256"
        }
      ],
      "stateMutability": "view",
      "type": "function"
    },
    {
      "inputs": [
        {
          "internalType": "address",
          "name": "spender",
          "type": "address"
        },
        {
          "internalType": "uint256",
          "name": "amount",
          "type": "uint256"
        }
      ],
      "name": "approve",
      "outputs": [
        {
          "internalType": "bool",
          "name": "",
          "type": "bool"
        }
      ],
      "stateMutability": "nonpayable",
      "type": "function"
    },
    {
      "inputs": [
        {
          "internalType": "address",
          "name": "account",
          "type": "address"
        }
      ],
      "name": "balanceOf",
      "outputs": [
        {
          "internalType": "uint256",
          "name": "",
          "type": "uint256"
        }
      ],
      "stateMutability": "view",
      "type": "function"
    },
    {
      "inputs": [],
      "name": "decimals",
      "outputs": [
        {
          "internalType": "uint8",
          "name": "",
          "type": "uint8"
        }
      ],
      "stateMutability": "view",
      "type": "function"
    },
    {
      "inputs": [
        {
          "internalType": "address",
          "name": "spender",
          "type": "address"
        },
        {
          "internalType": "uint256",
          "name": "subtractedValue",
          "type": "uint256"
        }
      ],
      "name": "decreaseAllowance",
      "outputs": [
        {
          "internalType": "bool",
          "name": "",
          "type": "bool"
        }
      ],
      "stateMutability": "nonpayable",
      "type": "function"
    },
    {
      "inputs": [
        {
          "internalType": "address",
          "name": "addr",
          "type": "address"
        }
      ],
      "name": "getBalance",
      "outputs": [
        {
          "internalType": "uint256",
          "name": "",
          "type": "uint256"
        }
      ],
      "stateMutability": "view",
      "type": "function"
    },
    {
      "inputs": [
        {
          "internalType": "address",
          "name": "spender",
          "type": "address"
        },
        {
          "internalType": "uint256",
          "name": "addedValue",
          "type": "uint256"
        }
      ],
      "name": "increaseAllowance",
      "outputs": [
        {
          "internalType": "bool",
          "name": "",
          "type": "bool"
        }
      ],
      "stateMutability": "nonpayable",
      "type": "function"
    },
    {
      "inputs": [],
      "name": "name",
      "outputs": [
        {
          "internalType": "string",
          "name": "",
          "type": "string"
        }
      ],
      "stateMutability": "view",
      "type": "function"
    },
    {
      "inputs": [
        {
          "internalType": "string",
          "name": "referalCode",
          "type": "string"
        },
        {
          "internalType": "string",
          "name": "code",
          "type": "string"
        }
      ],
      "name": "register",
      "outputs": [],
      "stateMutability": "nonpayable",
      "type": "function"
    },
    {
      "inputs": [],
      "name": "signupBonus",
      "outputs": [
        {
          "internalType": "uint256",
          "name": "",
          "type": "uint256"
        }
      ],
      "stateMutability": "view",
      "type": "function"
    },
    {
      "inputs": [],
      "name": "symbol",
      "outputs": [
        {
          "internalType": "string",
          "name": "",
          "type": "string"
        }
      ],
      "stateMutability": "view",
      "type": "function"
    },
    {
      "inputs": [],
      "name": "totalSupply",
      "outputs": [
        {
          "internalType": "uint256",
          "name": "",
          "type": "uint256"
        }
      ],
      "stateMutability": "view",
      "type": "function"
    },
    {
      "inputs": [
        {
          "internalType": "address",
          "name": "to",
          "type": "address"
        },
        {
          "internalType": "uint256",
          "name": "amount",
          "type": "uint256"
        }
      ],
      "name": "transfer",
      "outputs": [
        {
          "internalType": "bool",
          "name": "",
          "type": "bool"
        }
      ],
      "stateMutability": "nonpayable",
      "type": "function"
    },
    {
      "inputs": [
        {
          "internalType": "address",
          "name": "from",
          "type": "address"
        },
        {
          "internalType": "address",
          "name": "to",
          "type": "address"
        },
        {
          "internalType": "uint256",
          "name": "amount",
          "type": "uint256"
        }
      ],
      "name": "transferFrom",
      "outputs": [
        {
          "internalType": "bool",
          "name": "",
          "type": "bool"
        }
      ],
      "stateMutability": "nonpayable",
      "type": "function"
    }
  ],
  "bytecode": "0x608060405260646005553480156200001657600080fd5b506040518060400160405280600d81526020017f556e695175616c206954656368000000000000000000000000000000000000008152506040518060400160405280600281526020017f555100000000000000000000000000000000000000000000000000000000000081525081600390816200009491906200043b565b508060049081620000a691906200043b565b5050506064600f600554620000bc919062000551565b620000c89190620005cb565b600a600060018152602001908152602001600020819055506064600c600554620000f3919062000551565b620000ff9190620005cb565b600a60006002815260200190815260200160002081905550606460096005546200012a919062000551565b620001369190620005cb565b600a600060038152602001908152602001600020819055506064600760055462000161919062000551565b6200016d9190620005cb565b600a6000600481526020019081526020016000208190555060646005805462000197919062000551565b620001a39190620005cb565b600a6000600581526020019081526020016000208190555062000603565b600081519050919050565b7f4e487b7100000000000000000000000000000000000000000000000000000000600052604160045260246000fd5b7f4e487b7100000000000000000000000000000000000000000000000000000000600052602260045260246000fd5b600060028204905060018216806200024357607f821691505b602082108103620002595762000258620001fb565b5b50919050565b60008190508160005260206000209050919050565b60006020601f8301049050919050565b600082821b905092915050565b600060088302620002c37fffffffffffffffffffffffffffffffffffffffffffffffffffffffffffffffff8262000284565b620002cf868362000284565b95508019841693508086168417925050509392505050565b6000819050919050565b6000819050919050565b60006200031c620003166200031084620002e7565b620002f1565b620002e7565b9050919050565b6000819050919050565b6200033883620002fb565b62000350620003478262000323565b84845462000291565b825550505050565b600090565b6200036762000358565b620003748184846200032d565b505050565b5b818110156200039c57620003906000826200035d565b6001810190506200037a565b5050565b601f821115620003eb57620003b5816200025f565b620003c08462000274565b81016020851015620003d0578190505b620003e8620003df8562000274565b83018262000379565b50505b505050565b600082821c905092915050565b60006200041060001984600802620003f0565b1980831691505092915050565b60006200042b8383620003fd565b9150826002028217905092915050565b6200044682620001c1565b67ffffffffffffffff811115620004625762000461620001cc565b5b6200046e82546200022a565b6200047b828285620003a0565b600060209050601f831160018114620004b357600084156200049e578287015190505b620004aa85826200041d565b8655506200051a565b601f198416620004c3866200025f565b60005b82811015620004ed57848901518255600182019150602085019450602081019050620004c6565b868310156200050d578489015162000509601f891682620003fd565b8355505b6001600288020188555050505b505050505050565b7f4e487b7100000000000000000000000000000000000000000000000000000000600052601160045260246000fd5b60006200055e82620002e7565b91506200056b83620002e7565b92508282026200057b81620002e7565b9150828204841483151762000595576200059462000522565b5b5092915050565b7f4e487b7100000000000000000000000000000000000000000000000000000000600052601260045260246000fd5b6000620005d882620002e7565b9150620005e583620002e7565b925082620005f857620005f76200059c565b5b828204905092915050565b61212280620006136000396000f3fe608060405234801561001057600080fd5b50600436106100ea5760003560e01c806367cb52d81161008c578063a457c2d711610066578063a457c2d714610261578063a9059cbb14610291578063dd62ed3e146102c1578063f8b2cb4f146102f1576100ea565b806367cb52d8146101f557806370a082311461021357806395d89b4114610243576100ea565b806323b872dd116100c857806323b872dd1461015b578063313ce5671461018b57806339509351146101a95780633ffbd47f146101d9576100ea565b806306fdde03146100ef578063095ea7b31461010d57806318160ddd1461013d575b600080fd5b6100f7610321565b6040516101049190611354565b60405180910390f35b6101276004803603810190610122919061141e565b6103b3565b6040516101349190611479565b60405180910390f35b6101456103d6565b60405161015291906114a3565b60405180910390f35b610175600480360381019061017091906114be565b6103e0565b6040516101829190611479565b60405180910390f35b61019361040f565b6040516101a0919061152d565b60405180910390f35b6101c360048036038101906101be919061141e565b610418565b6040516101d09190611479565b60405180910390f35b6101f360048036038101906101ee919061167d565b61044f565b005b6101fd610a7e565b60405161020a91906114a3565b60405180910390f35b61022d600480360381019061022891906116f5565b610a84565b60405161023a91906114a3565b60405180910390f35b61024b610acc565b6040516102589190611354565b60405180910390f35b61027b6004803603810190610276919061141e565b610b5e565b6040516102889190611479565b60405180910390f35b6102ab60048036038101906102a6919061141e565b610bd5565b6040516102b89190611479565b60405180910390f35b6102db60048036038101906102d69190611722565b610bf8565b6040516102e891906114a3565b60405180910390f35b61030b600480360381019061030691906116f5565b610c7f565b60405161031891906114a3565b60405180910390f35b60606003805461033090611791565b80601f016020809104026020016040519081016040528092919081815260200182805461035c90611791565b80156103a95780601f1061037e576101008083540402835291602001916103a9565b820191906000526020600020905b81548152906001019060200180831161038c57829003601f168201915b5050505050905090565b6000806103be610c91565b90506103cb818585610c99565b600191505092915050565b6000600254905090565b6000806103eb610c91565b90506103f8858285610e62565b610403858585610eee565b60019150509392505050565b60006012905090565b600080610423610c91565b90506104448185856104358589610bf8565b61043f91906117f1565b610c99565b600191505092915050565b808051906020012082805190602001200361049f576040517f08c379a000000000000000000000000000000000000000000000000000000000815260040161049690611897565b60405180910390fd5b60001515600760003373ffffffffffffffffffffffffffffffffffffffff1673ffffffffffffffffffffffffffffffffffffffff16815260200190815260200160002060009054906101000a900460ff16151514610532576040517f08c379a000000000000000000000000000000000000000000000000000000000815260040161052990611903565b60405180910390fd5b60001515600882604051610546919061195f565b908152602001604051809103902060009054906101000a900460ff161515146105a4576040517f08c379a000000000000000000000000000000000000000000000000000000000815260040161059b906119c2565b60405180910390fd5b6105b033600554611164565b6005543373ffffffffffffffffffffffffffffffffffffffff167fdfa3e9910fe4ea0abbfdf02f2db465eb59e6e87d20b57307631b207e4bba96bd60405160405180910390a36001600760003373ffffffffffffffffffffffffffffffffffffffff1673ffffffffffffffffffffffffffffffffffffffff16815260200190815260200160002060006101000a81548160ff0219169083151502179055506001600882604051610660919061195f565b908152602001604051809103902060006101000a81548160ff02191690831515021790555060405180608001604052803373ffffffffffffffffffffffffffffffffffffffff1681526020016005548152602001828152602001838152506009826040516106ce919061195f565b908152602001604051809103902060008201518160000160006101000a81548173ffffffffffffffffffffffffffffffffffffffff021916908373ffffffffffffffffffffffffffffffffffffffff1602179055506020820151816001015560408201518160020190816107429190611b8e565b5060608201518160030190816107589190611b8e565b5090505060405180608001604052803373ffffffffffffffffffffffffffffffffffffffff168152602001600554815260200182815260200183815250600660003373ffffffffffffffffffffffffffffffffffffffff1673ffffffffffffffffffffffffffffffffffffffff16815260200190815260200160002060008201518160000160006101000a81548173ffffffffffffffffffffffffffffffffffffffff021916908373ffffffffffffffffffffffffffffffffffffffff16021790555060208201518160010155604082015181600201908161083a9190611b8e565b5060608201518160030190816108509190611b8e565b509050506040518060200160405280600081525080519060200120828051906020012014610a7a576000600190505b60058111610a78576000600984604051610899919061195f565b90815260200160405180910390209050600073ffffffffffffffffffffffffffffffffffffffff168160000160009054906101000a900473ffffffffffffffffffffffffffffffffffffffff1673ffffffffffffffffffffffffffffffffffffffff16146109d5576109428160000160009054906101000a900473ffffffffffffffffffffffffffffffffffffffff16600a600085815260200190815260200160002054611164565b600a6000838152602001908152602001600020548160000160009054906101000a900473ffffffffffffffffffffffffffffffffffffffff1673ffffffffffffffffffffffffffffffffffffffff163373ffffffffffffffffffffffffffffffffffffffff167f57cccde60e35b5d41e9ef05831a12eb1079b8add56fb8f9784316da04eeaeb4560405160405180910390a45b8060030180546109e490611791565b80601f0160208091040260200160405190810160405280929190818152602001828054610a1090611791565b8015610a5d5780601f10610a3257610100808354040283529160200191610a5d565b820191906000526020600020905b815481529060010190602001808311610a4057829003601f168201915b50505050509350508080610a7090611c60565b91505061087f565b505b5050565b60055481565b60008060008373ffffffffffffffffffffffffffffffffffffffff1673ffffffffffffffffffffffffffffffffffffffff168152602001908152602001600020549050919050565b606060048054610adb90611791565b80601f0160208091040260200160405190810160405280929190818152602001828054610b0790611791565b8015610b545780601f10610b2957610100808354040283529160200191610b54565b820191906000526020600020905b815481529060010190602001808311610b3757829003601f168201915b5050505050905090565b600080610b69610c91565b90506000610b778286610bf8565b905083811015610bbc576040517f08c379a0000000000000000000000000000000000000000000000000000000008152600401610bb390611d1a565b60405180910390fd5b610bc98286868403610c99565b60019250505092915050565b600080610be0610c91565b9050610bed818585610eee565b600191505092915050565b6000600160008473ffffffffffffffffffffffffffffffffffffffff1673ffffffffffffffffffffffffffffffffffffffff16815260200190815260200160002060008373ffffffffffffffffffffffffffffffffffffffff1673ffffffffffffffffffffffffffffffffffffffff16815260200190815260200160002054905092915050565b6000610c8a82610a84565b9050919050565b600033905090565b600073ffffffffffffffffffffffffffffffffffffffff168373ffffffffffffffffffffffffffffffffffffffff1603610d08576040517f08c379a0000000000000000000000000000000000000000000000000000000008152600401610cff90611dac565b60405180910390fd5b600073ffffffffffffffffffffffffffffffffffffffff168273ffffffffffffffffffffffffffffffffffffffff1603610d77576040517f08c379a0000000000000000000000000000000000000000000000000000000008152600401610d6e90611e3e565b60405180910390fd5b80600160008573ffffffffffffffffffffffffffffffffffffffff1673ffffffffffffffffffffffffffffffffffffffff16815260200190815260200160002060008473ffffffffffffffffffffffffffffffffffffffff1673ffffffffffffffffffffffffffffffffffffffff168152602001908152602001600020819055508173ffffffffffffffffffffffffffffffffffffffff168373ffffffffffffffffffffffffffffffffffffffff167f8c5be1e5ebec7d5bd14f71427d1e84f3dd0314c0f7b2291e5b200ac8c7c3b92583604051610e5591906114a3565b60405180910390a3505050565b6000610e6e8484610bf8565b90507fffffffffffffffffffffffffffffffffffffffffffffffffffffffffffffffff8114610ee85781811015610eda576040517f08c379a0000000000000000000000000000000000000000000000000000000008152600401610ed190611eaa565b60405180910390fd5b610ee78484848403610c99565b5b50505050565b600073ffffffffffffffffffffffffffffffffffffffff168373ffffffffffffffffffffffffffffffffffffffff1603610f5d576040517f08c379a0000000000000000000000000000000000000000000000000000000008152600401610f5490611f3c565b60405180910390fd5b600073ffffffffffffffffffffffffffffffffffffffff168273ffffffffffffffffffffffffffffffffffffffff1603610fcc576040517f08c379a0000000000000000000000000000000000000000000000000000000008152600401610fc390611fce565b60405180910390fd5b610fd78383836112ba565b60008060008573ffffffffffffffffffffffffffffffffffffffff1673ffffffffffffffffffffffffffffffffffffffff1681526020019081526020016000205490508181101561105d576040517f08c379a000000000000000000000000000000000000000000000000000000000815260040161105490612060565b60405180910390fd5b8181036000808673ffffffffffffffffffffffffffffffffffffffff1673ffffffffffffffffffffffffffffffffffffffff16815260200190815260200160002081905550816000808573ffffffffffffffffffffffffffffffffffffffff1673ffffffffffffffffffffffffffffffffffffffff168152602001908152602001600020600082825401925050819055508273ffffffffffffffffffffffffffffffffffffffff168473ffffffffffffffffffffffffffffffffffffffff167fddf252ad1be2c89b69c2b068fc378daa952ba7f163c4a11628f55a4df523b3ef8460405161114b91906114a3565b60405180910390a361115e8484846112bf565b50505050565b600073ffffffffffffffffffffffffffffffffffffffff168273ffffffffffffffffffffffffffffffffffffffff16036111d3576040517f08c379a00000000000000000000000000000000000000000000000000000000081526004016111ca906120cc565b60405180910390fd5b6111df600083836112ba565b80600260008282546111f191906117f1565b92505081905550806000808473ffffffffffffffffffffffffffffffffffffffff1673ffffffffffffffffffffffffffffffffffffffff168152602001908152602001600020600082825401925050819055508173ffffffffffffffffffffffffffffffffffffffff16600073ffffffffffffffffffffffffffffffffffffffff167fddf252ad1be2c89b69c2b068fc378daa952ba7f163c4a11628f55a4df523b3ef836040516112a291906114a3565b60405180910390a36112b6600083836112bf565b5050565b505050565b505050565b600081519050919050565b600082825260208201905092915050565b60005b838110156112fe5780820151818401526020810190506112e3565b60008484015250505050565b6000601f19601f8301169050919050565b6000611326826112c4565b61133081856112cf565b93506113408185602086016112e0565b6113498161130a565b840191505092915050565b6000602082019050818103600083015261136e818461131b565b905092915050565b6000604051905090565b600080fd5b600080fd5b600073ffffffffffffffffffffffffffffffffffffffff82169050919050565b60006113b58261138a565b9050919050565b6113c5816113aa565b81146113d057600080fd5b50565b6000813590506113e2816113bc565b92915050565b6000819050919050565b6113fb816113e8565b811461140657600080fd5b50565b600081359050611418816113f2565b92915050565b6000806040838503121561143557611434611380565b5b6000611443858286016113d3565b925050602061145485828601611409565b9150509250929050565b60008115159050919050565b6114738161145e565b82525050565b600060208201905061148e600083018461146a565b92915050565b61149d816113e8565b82525050565b60006020820190506114b86000830184611494565b92915050565b6000806000606084860312156114d7576114d6611380565b5b60006114e5868287016113d3565b93505060206114f6868287016113d3565b925050604061150786828701611409565b9150509250925092565b600060ff82169050919050565b61152781611511565b82525050565b6000602082019050611542600083018461151e565b92915050565b600080fd5b600080fd5b7f4e487b7100000000000000000000000000000000000000000000000000000000600052604160045260246000fd5b61158a8261130a565b810181811067ffffffffffffffff821117156115a9576115a8611552565b5b80604052505050565b60006115bc611376565b90506115c88282611581565b919050565b600067ffffffffffffffff8211156115e8576115e7611552565b5b6115f18261130a565b9050602081019050919050565b82818337600083830152505050565b600061162061161b846115cd565b6115b2565b90508281526020810184848401111561163c5761163b61154d565b5b6116478482856115fe565b509392505050565b600082601f83011261166457611663611548565b5b813561167484826020860161160d565b91505092915050565b6000806040838503121561169457611693611380565b5b600083013567ffffffffffffffff8111156116b2576116b1611385565b5b6116be8582860161164f565b925050602083013567ffffffffffffffff8111156116df576116de611385565b5b6116eb8582860161164f565b9150509250929050565b60006020828403121561170b5761170a611380565b5b6000611719848285016113d3565b91505092915050565b6000806040838503121561173957611738611380565b5b6000611747858286016113d3565b9250506020611758858286016113d3565b9150509250929050565b7f4e487b7100000000000000000000000000000000000000000000000000000000600052602260045260246000fd5b600060028204905060018216806117a957607f821691505b6020821081036117bc576117bb611762565b5b50919050565b7f4e487b7100000000000000000000000000000000000000000000000000000000600052601160045260246000fd5b60006117fc826113e8565b9150611807836113e8565b925082820190508082111561181f5761181e6117c2565b5b92915050565b7f5265666572616c20636f64652063616e206e6f74206265207468652073616d6560008201527f20617320796f7572730000000000000000000000000000000000000000000000602082015250565b60006118816029836112cf565b915061188c82611825565b604082019050919050565b600060208201905081810360008301526118b081611874565b9050919050565b7f5573657220657869737400000000000000000000000000000000000000000000600082015250565b60006118ed600a836112cf565b91506118f8826118b7565b602082019050919050565b6000602082019050818103600083015261191c816118e0565b9050919050565b600081905092915050565b6000611939826112c4565b6119438185611923565b93506119538185602086016112e0565b80840191505092915050565b600061196b828461192e565b915081905092915050565b7f436f646520616c726564792074616b656e000000000000000000000000000000600082015250565b60006119ac6011836112cf565b91506119b782611976565b602082019050919050565b600060208201905081810360008301526119db8161199f565b9050919050565b60008190508160005260206000209050919050565b60006020601f8301049050919050565b600082821b905092915050565b600060088302611a447fffffffffffffffffffffffffffffffffffffffffffffffffffffffffffffffff82611a07565b611a4e8683611a07565b95508019841693508086168417925050509392505050565b6000819050919050565b6000611a8b611a86611a81846113e8565b611a66565b6113e8565b9050919050565b6000819050919050565b611aa583611a70565b611ab9611ab182611a92565b848454611a14565b825550505050565b600090565b611ace611ac1565b611ad9818484611a9c565b505050565b5b81811015611afd57611af2600082611ac6565b600181019050611adf565b5050565b601f821115611b4257611b13816119e2565b611b1c846119f7565b81016020851015611b2b578190505b611b3f611b37856119f7565b830182611ade565b50505b505050565b600082821c905092915050565b6000611b6560001984600802611b47565b1980831691505092915050565b6000611b7e8383611b54565b9150826002028217905092915050565b611b97826112c4565b67ffffffffffffffff811115611bb057611baf611552565b5b611bba8254611791565b611bc5828285611b01565b600060209050601f831160018114611bf85760008415611be6578287015190505b611bf08582611b72565b865550611c58565b601f198416611c06866119e2565b60005b82811015611c2e57848901518255600182019150602085019450602081019050611c09565b86831015611c4b5784890151611c47601f891682611b54565b8355505b6001600288020188555050505b505050505050565b6000611c6b826113e8565b91507fffffffffffffffffffffffffffffffffffffffffffffffffffffffffffffffff8203611c9d57611c9c6117c2565b5b600182019050919050565b7f45524332303a2064656372656173656420616c6c6f77616e63652062656c6f7760008201527f207a65726f000000000000000000000000000000000000000000000000000000602082015250565b6000611d046025836112cf565b9150611d0f82611ca8565b604082019050919050565b60006020820190508181036000830152611d3381611cf7565b9050919050565b7f45524332303a20617070726f76652066726f6d20746865207a65726f2061646460008201527f7265737300000000000000000000000000000000000000000000000000000000602082015250565b6000611d966024836112cf565b9150611da182611d3a565b604082019050919050565b60006020820190508181036000830152611dc581611d89565b9050919050565b7f45524332303a20617070726f766520746f20746865207a65726f20616464726560008201527f7373000000000000000000000000000000000000000000000000000000000000602082015250565b6000611e286022836112cf565b9150611e3382611dcc565b604082019050919050565b60006020820190508181036000830152611e5781611e1b565b9050919050565b7f45524332303a20696e73756666696369656e7420616c6c6f77616e6365000000600082015250565b6000611e94601d836112cf565b9150611e9f82611e5e565b602082019050919050565b60006020820190508181036000830152611ec381611e87565b9050919050565b7f45524332303a207472616e736665722066726f6d20746865207a65726f20616460008201527f6472657373000000000000000000000000000000000000000000000000000000602082015250565b6000611f266025836112cf565b9150611f3182611eca565b604082019050919050565b60006020820190508181036000830152611f5581611f19565b9050919050565b7f45524332303a207472616e7366657220746f20746865207a65726f206164647260008201527f6573730000000000000000000000000000000000000000000000000000000000602082015250565b6000611fb86023836112cf565b9150611fc382611f5c565b604082019050919050565b60006020820190508181036000830152611fe781611fab565b9050919050565b7f45524332303a207472616e7366657220616d6f756e742065786365656473206260008201527f616c616e63650000000000000000000000000000000000000000000000000000602082015250565b600061204a6026836112cf565b915061205582611fee565b604082019050919050565b600060208201905081810360008301526120798161203d565b9050919050565b7f45524332303a206d696e7420746f20746865207a65726f206164647265737300600082015250565b60006120b6601f836112cf565b91506120c182612080565b602082019050919050565b600060208201905081810360008301526120e5816120a9565b905091905056fea264697066735822122072498a6c1d1a7173226c1389999dc8e066e25defff4aba4dea9102ea63d7cd9264736f6c63430008110033",
  "linkReferences": {},
  "deployedLinkReferences": {}
}